{
  "contractName": "SupplyChain",
  "abi": [
    {
      "constant": false,
      "inputs": [
        {
          "name": "account",
          "type": "address"
        }
      ],
      "name": "addConsumer",
      "outputs": [],
      "payable": false,
      "stateMutability": "nonpayable",
      "type": "function"
    },
    {
      "constant": true,
      "inputs": [
        {
          "name": "account",
          "type": "address"
        }
      ],
      "name": "isRetailer",
      "outputs": [
        {
          "name": "",
          "type": "bool"
        }
      ],
      "payable": false,
      "stateMutability": "view",
      "type": "function"
    },
    {
      "constant": false,
      "inputs": [],
      "name": "renounceConsumer",
      "outputs": [],
      "payable": false,
      "stateMutability": "nonpayable",
      "type": "function"
    },
    {
      "constant": false,
      "inputs": [],
      "name": "renounceDistributor",
      "outputs": [],
      "payable": false,
      "stateMutability": "nonpayable",
      "type": "function"
    },
    {
      "constant": false,
      "inputs": [
        {
          "name": "account",
          "type": "address"
        }
      ],
      "name": "addDistributor",
      "outputs": [],
      "payable": false,
      "stateMutability": "nonpayable",
      "type": "function"
    },
    {
      "constant": false,
      "inputs": [
        {
          "name": "account",
          "type": "address"
        }
      ],
      "name": "addFarmer",
      "outputs": [],
      "payable": false,
      "stateMutability": "nonpayable",
      "type": "function"
    },
    {
      "constant": false,
      "inputs": [],
      "name": "renounceFarmer",
      "outputs": [],
      "payable": false,
      "stateMutability": "nonpayable",
      "type": "function"
    },
    {
      "constant": true,
      "inputs": [
        {
          "name": "account",
          "type": "address"
        }
      ],
      "name": "isConsumer",
      "outputs": [
        {
          "name": "",
          "type": "bool"
        }
      ],
      "payable": false,
      "stateMutability": "view",
      "type": "function"
    },
    {
      "constant": false,
      "inputs": [
        {
          "name": "account",
          "type": "address"
        }
      ],
      "name": "addRetailer",
      "outputs": [],
      "payable": false,
      "stateMutability": "nonpayable",
      "type": "function"
    },
    {
      "constant": true,
      "inputs": [
        {
          "name": "account",
          "type": "address"
        }
      ],
      "name": "isDistributor",
      "outputs": [
        {
          "name": "",
          "type": "bool"
        }
      ],
      "payable": false,
      "stateMutability": "view",
      "type": "function"
    },
    {
      "constant": true,
      "inputs": [
        {
          "name": "account",
          "type": "address"
        }
      ],
      "name": "isFarmer",
      "outputs": [
        {
          "name": "",
          "type": "bool"
        }
      ],
      "payable": false,
      "stateMutability": "view",
      "type": "function"
    },
    {
      "constant": false,
      "inputs": [],
      "name": "renounceRetailer",
      "outputs": [],
      "payable": false,
      "stateMutability": "nonpayable",
      "type": "function"
    },
    {
      "inputs": [],
      "payable": true,
      "stateMutability": "payable",
      "type": "constructor"
    },
    {
      "anonymous": false,
      "inputs": [
        {
          "indexed": false,
          "name": "upc",
          "type": "uint256"
        }
      ],
      "name": "Harvested",
      "type": "event"
    },
    {
      "anonymous": false,
      "inputs": [
        {
          "indexed": false,
          "name": "upc",
          "type": "uint256"
        }
      ],
      "name": "Processed",
      "type": "event"
    },
    {
      "anonymous": false,
      "inputs": [
        {
          "indexed": false,
          "name": "upc",
          "type": "uint256"
        }
      ],
      "name": "Packed",
      "type": "event"
    },
    {
      "anonymous": false,
      "inputs": [
        {
          "indexed": false,
          "name": "upc",
          "type": "uint256"
        }
      ],
      "name": "ForSale",
      "type": "event"
    },
    {
      "anonymous": false,
      "inputs": [
        {
          "indexed": false,
          "name": "upc",
          "type": "uint256"
        }
      ],
      "name": "Sold",
      "type": "event"
    },
    {
      "anonymous": false,
      "inputs": [
        {
          "indexed": false,
          "name": "upc",
          "type": "uint256"
        }
      ],
      "name": "Shipped",
      "type": "event"
    },
    {
      "anonymous": false,
      "inputs": [
        {
          "indexed": false,
          "name": "upc",
          "type": "uint256"
        }
      ],
      "name": "Received",
      "type": "event"
    },
    {
      "anonymous": false,
      "inputs": [
        {
          "indexed": false,
          "name": "upc",
          "type": "uint256"
        }
      ],
      "name": "Purchased",
      "type": "event"
    },
    {
      "anonymous": false,
      "inputs": [
        {
          "indexed": true,
          "name": "account",
          "type": "address"
        }
      ],
      "name": "ConsumerAdded",
      "type": "event"
    },
    {
      "anonymous": false,
      "inputs": [
        {
          "indexed": true,
          "name": "account",
          "type": "address"
        }
      ],
      "name": "ConsumerRemoved",
      "type": "event"
    },
    {
      "anonymous": false,
      "inputs": [
        {
          "indexed": true,
          "name": "account",
          "type": "address"
        }
      ],
      "name": "DistributorAdded",
      "type": "event"
    },
    {
      "anonymous": false,
      "inputs": [
        {
          "indexed": true,
          "name": "account",
          "type": "address"
        }
      ],
      "name": "DistributorRemoved",
      "type": "event"
    },
    {
      "anonymous": false,
      "inputs": [
        {
          "indexed": true,
          "name": "account",
          "type": "address"
        }
      ],
      "name": "RetailerAdded",
      "type": "event"
    },
    {
      "anonymous": false,
      "inputs": [
        {
          "indexed": true,
          "name": "account",
          "type": "address"
        }
      ],
      "name": "RetailerRemoved",
      "type": "event"
    },
    {
      "anonymous": false,
      "inputs": [
        {
          "indexed": true,
          "name": "account",
          "type": "address"
        }
      ],
      "name": "FarmerAdded",
      "type": "event"
    },
    {
      "anonymous": false,
      "inputs": [
        {
          "indexed": true,
          "name": "account",
          "type": "address"
        }
      ],
      "name": "FarmerRemoved",
      "type": "event"
    },
    {
      "constant": false,
      "inputs": [],
      "name": "kill",
      "outputs": [],
      "payable": false,
      "stateMutability": "nonpayable",
      "type": "function"
    },
    {
      "constant": true,
      "inputs": [
        {
          "name": "_upc",
          "type": "uint256"
        }
      ],
      "name": "getState",
      "outputs": [
        {
          "name": "",
          "type": "string"
        }
      ],
      "payable": false,
      "stateMutability": "view",
      "type": "function"
    },
    {
      "constant": true,
      "inputs": [
        {
          "name": "_state",
          "type": "uint8"
        }
      ],
      "name": "_toStateString",
      "outputs": [
        {
          "name": "",
          "type": "string"
        }
      ],
      "payable": false,
      "stateMutability": "pure",
      "type": "function"
    },
    {
      "constant": false,
      "inputs": [
        {
          "name": "_upc",
          "type": "uint256"
        },
        {
          "name": "_originFarmerID",
          "type": "address"
        },
        {
          "name": "_originFarmName",
          "type": "string"
        },
        {
          "name": "_originFarmInformation",
          "type": "string"
        },
        {
          "name": "_originFarmLatitude",
          "type": "string"
        },
        {
          "name": "_originFarmLongitude",
          "type": "string"
        },
        {
          "name": "_productNotes",
          "type": "string"
        }
      ],
      "name": "harvestItem",
      "outputs": [],
      "payable": false,
      "stateMutability": "nonpayable",
      "type": "function"
    },
    {
      "constant": false,
      "inputs": [
        {
          "name": "_upc",
          "type": "uint256"
        }
      ],
      "name": "processItem",
      "outputs": [],
      "payable": false,
      "stateMutability": "nonpayable",
      "type": "function"
    },
    {
      "constant": false,
      "inputs": [
        {
          "name": "_upc",
          "type": "uint256"
        }
      ],
      "name": "packItem",
      "outputs": [],
      "payable": false,
      "stateMutability": "nonpayable",
      "type": "function"
    },
    {
      "constant": false,
      "inputs": [
        {
          "name": "_upc",
          "type": "uint256"
        },
        {
          "name": "_price",
          "type": "uint256"
        }
      ],
      "name": "sellItem",
      "outputs": [],
      "payable": false,
      "stateMutability": "nonpayable",
      "type": "function"
    },
    {
      "constant": false,
      "inputs": [
        {
          "name": "_upc",
          "type": "uint256"
        }
      ],
      "name": "buyItem",
      "outputs": [],
      "payable": true,
      "stateMutability": "payable",
      "type": "function"
    },
    {
      "constant": false,
      "inputs": [
        {
          "name": "_upc",
          "type": "uint256"
        }
      ],
      "name": "shipItem",
      "outputs": [],
      "payable": false,
      "stateMutability": "nonpayable",
      "type": "function"
    },
    {
      "constant": false,
      "inputs": [
        {
          "name": "_upc",
          "type": "uint256"
        }
      ],
      "name": "receiveItem",
      "outputs": [],
      "payable": false,
      "stateMutability": "nonpayable",
      "type": "function"
    },
    {
      "constant": false,
      "inputs": [
        {
          "name": "_upc",
          "type": "uint256"
        }
      ],
      "name": "purchaseItem",
      "outputs": [],
      "payable": false,
      "stateMutability": "nonpayable",
      "type": "function"
    },
    {
      "constant": true,
      "inputs": [
        {
          "name": "_upc",
          "type": "uint256"
        }
      ],
      "name": "fetchItemBufferOne",
      "outputs": [
        {
          "name": "itemSKU",
          "type": "uint256"
        },
        {
          "name": "itemUPC",
          "type": "uint256"
        },
        {
          "name": "ownerID",
          "type": "address"
        },
        {
          "name": "originFarmerID",
          "type": "address"
        },
        {
          "name": "originFarmName",
          "type": "string"
        },
        {
          "name": "originFarmInformation",
          "type": "string"
        },
        {
          "name": "originFarmLatitude",
          "type": "string"
        },
        {
          "name": "originFarmLongitude",
          "type": "string"
        }
      ],
      "payable": false,
      "stateMutability": "view",
      "type": "function"
    },
    {
      "constant": true,
      "inputs": [
        {
          "name": "_upc",
          "type": "uint256"
        }
      ],
      "name": "fetchItemBufferTwo",
      "outputs": [
        {
          "name": "itemSKU",
          "type": "uint256"
        },
        {
          "name": "itemUPC",
          "type": "uint256"
        },
        {
          "name": "productID",
          "type": "uint256"
        },
        {
          "name": "productNotes",
          "type": "string"
        },
        {
          "name": "productPrice",
          "type": "uint256"
        },
        {
          "name": "itemState",
          "type": "uint256"
        },
        {
          "name": "distributorID",
          "type": "address"
        },
        {
          "name": "retailerID",
          "type": "address"
        },
        {
          "name": "consumerID",
          "type": "address"
        }
      ],
      "payable": false,
      "stateMutability": "view",
      "type": "function"
    }
  ],
  "bytecode": "0x60806040526200001e33620000c3640100000000026401000000009004565b62000038336200012d640100000000026401000000009004565b620000523362000197640100000000026401000000009004565b6200006c3362000201640100000000026401000000009004565b33600460006101000a81548173ffffffffffffffffffffffffffffffffffffffff021916908373ffffffffffffffffffffffffffffffffffffffff16021790555060016006819055506001600581905550620003c3565b620000e78160006200026b640100000000026200371c179091906401000000009004565b8073ffffffffffffffffffffffffffffffffffffffff167f2e0ded4123377a3c2bc9a26f1717655a129e2f20752924d42e730ec89c83dbd060405160405180910390a250565b620001518160016200026b640100000000026200371c179091906401000000009004565b8073ffffffffffffffffffffffffffffffffffffffff167f71ae26cad02663e3d92efd6ec56031a80d74a20c0ab4183faa8bf262261c9baa60405160405180910390a250565b620001bb8160026200026b640100000000026200371c179091906401000000009004565b8073ffffffffffffffffffffffffffffffffffffffff167fddbf200aa634dc3fb81cfd68583dd1040d1c751d335e1d86b631bde3e977fea860405160405180910390a250565b620002258160036200026b640100000000026200371c179091906401000000009004565b8073ffffffffffffffffffffffffffffffffffffffff167f28b26e7a3d20aedbc5f8f2ebf7da671c0491723a2b78f47a097b0e46dee0714260405160405180910390a250565b600073ffffffffffffffffffffffffffffffffffffffff168173ffffffffffffffffffffffffffffffffffffffff1614151515620002a857600080fd5b620002c382826200032e640100000000026401000000009004565b151515620002d057600080fd5b60018260000160008373ffffffffffffffffffffffffffffffffffffffff1673ffffffffffffffffffffffffffffffffffffffff16815260200190815260200160002060006101000a81548160ff0219169083151502179055505050565b60008073ffffffffffffffffffffffffffffffffffffffff168273ffffffffffffffffffffffffffffffffffffffff16141515156200036c57600080fd5b8260000160008373ffffffffffffffffffffffffffffffffffffffff1673ffffffffffffffffffffffffffffffffffffffff16815260200190815260200160002060009054906101000a900460ff16905092915050565b613abc80620003d36000396000f300608060405260043610610149576000357c0100000000000000000000000000000000000000000000000000000000900463ffffffff168063112940f91461014e57806327e8c6c2146101915780632d9235611461023a57806341c0e1b51461027157806344c9af281461028857806349dae7661461032e5780635da09b881461035b57806361e6982d146103b6578063644241db146103cd57806366225ff9146103e45780637250e2241461054657806377c459131461058957806380c3f96d146107e757806380fc0ce41461082a578063834ff739146108415780638ec4f5051461089c5780638f0c86fa146108df578063a26be9991461093a578063b942906914610967578063bdd8a6a8146109c2578063d38ea5bf14610b6d578063db0e6a2f14610b9a578063e7fb74c714610bb1578063f30fc48014610bd1578063f61c899a14610bfe575b600080fd5b34801561015a57600080fd5b5061018f600480360381019080803573ffffffffffffffffffffffffffffffffffffffff169060200190929190505050610c2b565b005b34801561019d57600080fd5b506101bf600480360381019080803560ff169060200190929190505050610cb4565b6040518080602001828103825283818151815260200191508051906020019080838360005b838110156101ff5780820151818401526020810190506101e4565b50505050905090810190601f16801561022c5780820380516001836020036101000a031916815260200191505b509250505060405180910390f35b34801561024657600080fd5b5061026f6004803603810190808035906020019092919080359060200190929190505050610fae565b005b34801561027d57600080fd5b5061028661125f565b005b34801561029457600080fd5b506102b3600480360381019080803590602001909291905050506112f2565b6040518080602001828103825283818151815260200191508051906020019080838360005b838110156102f35780820151818401526020810190506102d8565b50505050905090810190601f1680156103205780820380516001836020036101000a031916815260200191505b509250505060405180910390f35b34801561033a57600080fd5b5061035960048036038101908080359060200190929190505050611327565b005b34801561036757600080fd5b5061039c600480360381019080803573ffffffffffffffffffffffffffffffffffffffff1690602001909291905050506116a9565b604051808215151515815260200191505060405180910390f35b3480156103c257600080fd5b506103cb6116c6565b005b3480156103d957600080fd5b506103e26116d1565b005b3480156103f057600080fd5b5061040f600480360381019080803590602001909291905050506116dc565b604051808a8152602001898152602001888152602001806020018781526020018681526020018573ffffffffffffffffffffffffffffffffffffffff1673ffffffffffffffffffffffffffffffffffffffff1681526020018473ffffffffffffffffffffffffffffffffffffffff1673ffffffffffffffffffffffffffffffffffffffff1681526020018373ffffffffffffffffffffffffffffffffffffffff1673ffffffffffffffffffffffffffffffffffffffff168152602001828103825288818151815260200191508051906020019080838360005b838110156105035780820151818401526020810190506104e8565b50505050905090810190601f1680156105305780820380516001836020036101000a031916815260200191505b509a505050505050505050505060405180910390f35b34801561055257600080fd5b50610587600480360381019080803573ffffffffffffffffffffffffffffffffffffffff169060200190929190505050611ca1565b005b34801561059557600080fd5b506105b460048036038101908080359060200190929190505050611d2a565b604051808981526020018881526020018773ffffffffffffffffffffffffffffffffffffffff1673ffffffffffffffffffffffffffffffffffffffff1681526020018673ffffffffffffffffffffffffffffffffffffffff1673ffffffffffffffffffffffffffffffffffffffff16815260200180602001806020018060200180602001858103855289818151815260200191508051906020019080838360005b83811015610670578082015181840152602081019050610655565b50505050905090810190601f16801561069d5780820380516001836020036101000a031916815260200191505b50858103845288818151815260200191508051906020019080838360005b838110156106d65780820151818401526020810190506106bb565b50505050905090810190601f1680156107035780820380516001836020036101000a031916815260200191505b50858103835287818151815260200191508051906020019080838360005b8381101561073c578082015181840152602081019050610721565b50505050905090810190601f1680156107695780820380516001836020036101000a031916815260200191505b50858103825286818151815260200191508051906020019080838360005b838110156107a2578082015181840152602081019050610787565b50505050905090810190601f1680156107cf5780820380516001836020036101000a031916815260200191505b509c5050505050505050505050505060405180910390f35b3480156107f357600080fd5b50610828600480360381019080803573ffffffffffffffffffffffffffffffffffffffff1690602001909291905050506122dd565b005b34801561083657600080fd5b5061083f612366565b005b34801561084d57600080fd5b50610882600480360381019080803573ffffffffffffffffffffffffffffffffffffffff169060200190929190505050612371565b604051808215151515815260200191505060405180910390f35b3480156108a857600080fd5b506108dd600480360381019080803573ffffffffffffffffffffffffffffffffffffffff16906020019092919050505061238e565b005b3480156108eb57600080fd5b50610920600480360381019080803573ffffffffffffffffffffffffffffffffffffffff169060200190929190505050612417565b604051808215151515815260200191505060405180910390f35b34801561094657600080fd5b5061096560048036038101908080359060200190929190505050612434565b005b34801561097357600080fd5b506109a8600480360381019080803573ffffffffffffffffffffffffffffffffffffffff1690602001909291905050506125dc565b604051808215151515815260200191505060405180910390f35b3480156109ce57600080fd5b50610b6b60048036038101908080359060200190929190803573ffffffffffffffffffffffffffffffffffffffff169060200190929190803590602001908201803590602001908080601f0160208091040260200160405190810160405280939291908181526020018383808284378201915050505050509192919290803590602001908201803590602001908080601f0160208091040260200160405190810160405280939291908181526020018383808284378201915050505050509192919290803590602001908201803590602001908080601f0160208091040260200160405190810160405280939291908181526020018383808284378201915050505050509192919290803590602001908201803590602001908080601f0160208091040260200160405190810160405280939291908181526020018383808284378201915050505050509192919290803590602001908201803590602001908080601f01602080910402602001604051908101604052809392919081815260200183838082843782019150505050505091929192905050506125f9565b005b348015610b7957600080fd5b50610b9860048036038101908080359060200190929190505050612999565b005b348015610ba657600080fd5b50610baf612b41565b005b610bcf60048036038101908080359060200190929190505050612b4c565b005b348015610bdd57600080fd5b50610bfc60048036038101908080359060200190929190505050612e97565b005b348015610c0a57600080fd5b50610c29600480360381019080803590602001909291905050506131cd565b005b610c3433612371565b1515610ca8576040517f08c379a00000000000000000000000000000000000000000000000000000000081526004018080602001828103825260158152602001807f436f6e73756d657220726f6c65206d697373696e67000000000000000000000081525060200191505060405180910390fd5b610cb1816133b8565b50565b606060006007811115610cc357fe5b826007811115610ccf57fe5b1415610d12576040805190810160405280600981526020017f48617276657374656400000000000000000000000000000000000000000000008152509050610fa9565b60016007811115610d1f57fe5b826007811115610d2b57fe5b1415610d6e576040805190810160405280600981526020017f50726f63657373656400000000000000000000000000000000000000000000008152509050610fa9565b60026007811115610d7b57fe5b826007811115610d8757fe5b1415610dca576040805190810160405280600681526020017f5061636b656400000000000000000000000000000000000000000000000000008152509050610fa9565b60036007811115610dd757fe5b826007811115610de357fe5b1415610e26576040805190810160405280600781526020017f466f7253616c65000000000000000000000000000000000000000000000000008152509050610fa9565b60046007811115610e3357fe5b826007811115610e3f57fe5b1415610e82576040805190810160405280600481526020017f536f6c64000000000000000000000000000000000000000000000000000000008152509050610fa9565b60056007811115610e8f57fe5b826007811115610e9b57fe5b1415610ede576040805190810160405280600781526020017f53686970706564000000000000000000000000000000000000000000000000008152509050610fa9565b60066007811115610eeb57fe5b826007811115610ef757fe5b1415610f3a576040805190810160405280600881526020017f52656365697665640000000000000000000000000000000000000000000000008152509050610fa9565b600780811115610f4657fe5b826007811115610f5257fe5b1415610f95576040805190810160405280600981526020017f50757263686173656400000000000000000000000000000000000000000000008152509050610fa9565b602060405190810160405280600081525090505b919050565b60008260026007811115610fbe57fe5b60076000838152602001908152602001600020600b0160009054906101000a900460ff166007811115610fed57fe5b141515611062576040517f08c379a00000000000000000000000000000000000000000000000000000000081526004018080602001828103825260168152602001807f5061636b656420737461747573206e6f74206d6574210000000000000000000081525060200191505060405180910390fd5b61106b336125dc565b15156110df576040517f08c379a00000000000000000000000000000000000000000000000000000000081526004018080602001828103825260138152602001807f4661726d657220726f6c65206d697373696e670000000000000000000000000081525060200191505060405180910390fd5b6007600085815260200190815260200160002091503373ffffffffffffffffffffffffffffffffffffffff168260030160009054906101000a900473ffffffffffffffffffffffffffffffffffffffff1673ffffffffffffffffffffffffffffffffffffffff1614151561115257600080fd5b8282600a0181905550600382600b0160006101000a81548160ff0219169083600781111561117c57fe5b02179055506003600781111561118e57fe5b82600b0160009054906101000a900460ff1660078111156111ab57fe5b141515611220576040517f08c379a000000000000000000000000000000000000000000000000000000000815260040180806020018281038252601c8152602001807f436f756c64206e6f74206368616e6765206974656d207374617465210000000081525060200191505060405180910390fd5b7fa96ae0fc3224ebd79eebfe54bd130cc9cb94416cddd1f2386115e00b725324686005546040518082815260200191505060405180910390a150505050565b600460009054906101000a900473ffffffffffffffffffffffffffffffffffffffff1673ffffffffffffffffffffffffffffffffffffffff163373ffffffffffffffffffffffffffffffffffffffff1614156112f057600460009054906101000a900473ffffffffffffffffffffffffffffffffffffffff1673ffffffffffffffffffffffffffffffffffffffff16ff5b565b606061132060076000848152602001908152602001600020600b0160009054906101000a900460ff16610cb4565b9050919050565b6000816000600781111561133757fe5b60076000838152602001908152602001600020600b0160009054906101000a900460ff16600781111561136657fe5b1415156113db576040517f08c379a00000000000000000000000000000000000000000000000000000000081526004018080602001828103825260198152602001807f48617276657374656420737461747573206e6f74206d6574210000000000000081525060200191505060405180910390fd5b6113e4336125dc565b1515611458576040517f08c379a00000000000000000000000000000000000000000000000000000000081526004018080602001828103825260138152602001807f4661726d657220726f6c65206d697373696e670000000000000000000000000081525060200191505060405180910390fd5b6007600084815260200190815260200160002091503373ffffffffffffffffffffffffffffffffffffffff168260030160009054906101000a900473ffffffffffffffffffffffffffffffffffffffff1673ffffffffffffffffffffffffffffffffffffffff1614151561155a576040517f08c379a000000000000000000000000000000000000000000000000000000000815260040180806020018281038252602f8152602001807f4f726967696e204661726d657220494420646f6573206e6f74206d617463682081526020017f73656e646572206164647265737321000000000000000000000000000000000081525060400191505060405180910390fd5b600182600b0160006101000a81548160ff0219169083600781111561157b57fe5b02179055506040805190810160405280601181526020017f70726f63657373204974656d20444f4e450000000000000000000000000000008152508260090190805190602001906115cd92919061387b565b50600160078111156115db57fe5b82600b0160009054906101000a900460ff1660078111156115f857fe5b14151561166d576040517f08c379a000000000000000000000000000000000000000000000000000000000815260040180806020018281038252601c8152602001807f436f756c64206e6f74206368616e6765206974656d207374617465210000000081525060200191505060405180910390fd5b7f5afe3b1bf87069693c075da5c22a98d63d1aef98a30dbbe538d0781a98b77ee5836040518082815260200191505060405180910390a1505050565b60006116bf82600161341290919063ffffffff16565b9050919050565b6116cf336134a6565b565b6116da33613500565b565b6000806000606060008060008060006116f36138fb565b600760008c81526020019081526020016000206101e0604051908101604052908160008201548152602001600182015481526020016002820160009054906101000a900473ffffffffffffffffffffffffffffffffffffffff1673ffffffffffffffffffffffffffffffffffffffff1673ffffffffffffffffffffffffffffffffffffffff1681526020016003820160009054906101000a900473ffffffffffffffffffffffffffffffffffffffff1673ffffffffffffffffffffffffffffffffffffffff1673ffffffffffffffffffffffffffffffffffffffff168152602001600482018054600181600116156101000203166002900480601f01602080910402602001604051908101604052809291908181526020018280546001816001161561010002031660029004801561186c5780601f106118415761010080835404028352916020019161186c565b820191906000526020600020905b81548152906001019060200180831161184f57829003601f168201915b50505050508152602001600582018054600181600116156101000203166002900480601f01602080910402602001604051908101604052809291908181526020018280546001816001161561010002031660029004801561190e5780601f106118e35761010080835404028352916020019161190e565b820191906000526020600020905b8154815290600101906020018083116118f157829003601f168201915b50505050508152602001600682018054600181600116156101000203166002900480601f0160208091040260200160405190810160405280929190818152602001828054600181600116156101000203166002900480156119b05780601f10611985576101008083540402835291602001916119b0565b820191906000526020600020905b81548152906001019060200180831161199357829003601f168201915b50505050508152602001600782018054600181600116156101000203166002900480601f016020809104026020016040519081016040528092919081815260200182805460018160011615610100020316600290048015611a525780601f10611a2757610100808354040283529160200191611a52565b820191906000526020600020905b815481529060010190602001808311611a3557829003601f168201915b5050505050815260200160088201548152602001600982018054600181600116156101000203166002900480601f016020809104026020016040519081016040528092919081815260200182805460018160011615610100020316600290048015611afe5780601f10611ad357610100808354040283529160200191611afe565b820191906000526020600020905b815481529060010190602001808311611ae157829003601f168201915b50505050508152602001600a8201548152602001600b820160009054906101000a900460ff166007811115611b2f57fe5b6007811115611b3a57fe5b8152602001600b820160019054906101000a900473ffffffffffffffffffffffffffffffffffffffff1673ffffffffffffffffffffffffffffffffffffffff1673ffffffffffffffffffffffffffffffffffffffff168152602001600c820160009054906101000a900473ffffffffffffffffffffffffffffffffffffffff1673ffffffffffffffffffffffffffffffffffffffff1673ffffffffffffffffffffffffffffffffffffffff168152602001600d820160009054906101000a900473ffffffffffffffffffffffffffffffffffffffff1673ffffffffffffffffffffffffffffffffffffffff1673ffffffffffffffffffffffffffffffffffffffff1681525050905080600001519950806020015198508061010001519750806101200151965080610140015195508061016001516007811115611c7957fe5b94508061018001519350806101a001519250806101c001519150509193959799909294969850565b611caa33612417565b1515611d1e576040517f08c379a00000000000000000000000000000000000000000000000000000000081526004018080602001828103825260188152602001807f4469737472696275746f7220726f6c65206d697373696e67000000000000000081525060200191505060405180910390fd5b611d278161355a565b50565b600080600080606080606080611d3e6138fb565b600760008b81526020019081526020016000206101e0604051908101604052908160008201548152602001600182015481526020016002820160009054906101000a900473ffffffffffffffffffffffffffffffffffffffff1673ffffffffffffffffffffffffffffffffffffffff1673ffffffffffffffffffffffffffffffffffffffff1681526020016003820160009054906101000a900473ffffffffffffffffffffffffffffffffffffffff1673ffffffffffffffffffffffffffffffffffffffff1673ffffffffffffffffffffffffffffffffffffffff168152602001600482018054600181600116156101000203166002900480601f016020809104026020016040519081016040528092919081815260200182805460018160011615610100020316600290048015611eb75780601f10611e8c57610100808354040283529160200191611eb7565b820191906000526020600020905b815481529060010190602001808311611e9a57829003601f168201915b50505050508152602001600582018054600181600116156101000203166002900480601f016020809104026020016040519081016040528092919081815260200182805460018160011615610100020316600290048015611f595780601f10611f2e57610100808354040283529160200191611f59565b820191906000526020600020905b815481529060010190602001808311611f3c57829003601f168201915b50505050508152602001600682018054600181600116156101000203166002900480601f016020809104026020016040519081016040528092919081815260200182805460018160011615610100020316600290048015611ffb5780601f10611fd057610100808354040283529160200191611ffb565b820191906000526020600020905b815481529060010190602001808311611fde57829003601f168201915b50505050508152602001600782018054600181600116156101000203166002900480601f01602080910402602001604051908101604052809291908181526020018280546001816001161561010002031660029004801561209d5780601f106120725761010080835404028352916020019161209d565b820191906000526020600020905b81548152906001019060200180831161208057829003601f168201915b5050505050815260200160088201548152602001600982018054600181600116156101000203166002900480601f0160208091040260200160405190810160405280929190818152602001828054600181600116156101000203166002900480156121495780601f1061211e57610100808354040283529160200191612149565b820191906000526020600020905b81548152906001019060200180831161212c57829003601f168201915b50505050508152602001600a8201548152602001600b820160009054906101000a900460ff16600781111561217a57fe5b600781111561218557fe5b8152602001600b820160019054906101000a900473ffffffffffffffffffffffffffffffffffffffff1673ffffffffffffffffffffffffffffffffffffffff1673ffffffffffffffffffffffffffffffffffffffff168152602001600c820160009054906101000a900473ffffffffffffffffffffffffffffffffffffffff1673ffffffffffffffffffffffffffffffffffffffff1673ffffffffffffffffffffffffffffffffffffffff168152602001600d820160009054906101000a900473ffffffffffffffffffffffffffffffffffffffff1673ffffffffffffffffffffffffffffffffffffffff1673ffffffffffffffffffffffffffffffffffffffff16815250509050806000015181602001518260400151836060015184608001518560a001518660c001518760e001518393508292508191508090509850985098509850985098509850985050919395975091939597565b6122e6336125dc565b151561235a576040517f08c379a00000000000000000000000000000000000000000000000000000000081526004018080602001828103825260138152602001807f4661726d657220726f6c65206d697373696e670000000000000000000000000081525060200191505060405180910390fd5b612363816135b4565b50565b61236f3361360e565b565b600061238782600361341290919063ffffffff16565b9050919050565b612397336116a9565b151561240b576040517f08c379a00000000000000000000000000000000000000000000000000000000081526004018080602001828103825260158152602001807f52657461696c657220726f6c65206d697373696e67000000000000000000000081525060200191505060405180910390fd5b61241481613668565b50565b600061242d82600261341290919063ffffffff16565b9050919050565b6000816005600781111561244457fe5b60076000838152602001908152602001600020600b0160009054906101000a900460ff16600781111561247357fe5b1415156124e8576040517f08c379a00000000000000000000000000000000000000000000000000000000081526004018080602001828103825260178152602001807f5368697070656420737461747573206e6f74206d65742100000000000000000081525060200191505060405180910390fd5b6124f1336116a9565b1515612565576040517f08c379a00000000000000000000000000000000000000000000000000000000081526004018080602001828103825260158152602001807f52657461696c657220726f6c65206d697373696e67000000000000000000000081525060200191505060405180910390fd5b600760008481526020019081526020016000209150600682600b0160006101000a81548160ff0219169083600781111561259b57fe5b02179055507fa8142743f8f70a4c26f3691cf4ed59718381fb2f18070ec52be1f1022d855557836040518082815260200191505060405180910390a1505050565b60006125f282600061341290919063ffffffff16565b9050919050565b6101e06040519081016040528060065481526020018881526020018773ffffffffffffffffffffffffffffffffffffffff1681526020018773ffffffffffffffffffffffffffffffffffffffff16815260200186815260200185815260200184815260200183815260200160065489018152602001828152602001600081526020016000600781111561268857fe5b8152602001600073ffffffffffffffffffffffffffffffffffffffff168152602001600073ffffffffffffffffffffffffffffffffffffffff168152602001600073ffffffffffffffffffffffffffffffffffffffff1681525060076000898152602001908152602001600020600082015181600001556020820151816001015560408201518160020160006101000a81548173ffffffffffffffffffffffffffffffffffffffff021916908373ffffffffffffffffffffffffffffffffffffffff16021790555060608201518160030160006101000a81548173ffffffffffffffffffffffffffffffffffffffff021916908373ffffffffffffffffffffffffffffffffffffffff16021790555060808201518160040190805190602001906127b39291906139eb565b5060a08201518160050190805190602001906127d09291906139eb565b5060c08201518160060190805190602001906127ed9291906139eb565b5060e082015181600701908051906020019061280a9291906139eb565b5061010082015181600801556101208201518160090190805190602001906128339291906139eb565b5061014082015181600a015561016082015181600b0160006101000a81548160ff0219169083600781111561286457fe5b021790555061018082015181600b0160016101000a81548173ffffffffffffffffffffffffffffffffffffffff021916908373ffffffffffffffffffffffffffffffffffffffff1602179055506101a082015181600c0160006101000a81548173ffffffffffffffffffffffffffffffffffffffff021916908373ffffffffffffffffffffffffffffffffffffffff1602179055506101c082015181600d0160006101000a81548173ffffffffffffffffffffffffffffffffffffffff021916908373ffffffffffffffffffffffffffffffffffffffff16021790555090505061294d866122dd565b6001600654016006819055507f8e55ccfc9778ff8eba1646d765cf1982537ce0f9257054a17b48aad745250183876040518082815260200191505060405180910390a150505050505050565b600081600660078111156129a957fe5b60076000838152602001908152602001600020600b0160009054906101000a900460ff1660078111156129d857fe5b141515612a4d576040517f08c379a00000000000000000000000000000000000000000000000000000000081526004018080602001828103825260188152602001807f526563656976656420737461747573206e6f74206d657421000000000000000081525060200191505060405180910390fd5b612a5633612371565b1515612aca576040517f08c379a00000000000000000000000000000000000000000000000000000000081526004018080602001828103825260158152602001807f436f6e73756d657220726f6c65206d697373696e67000000000000000000000081525060200191505060405180910390fd5b600760008481526020019081526020016000209150600782600b0160006101000a81548160ff02191690836007811115612b0057fe5b02179055507f653d56639fee6b566a5c804764e9689de38645f0b733df89a36a1b7b42173dd8836040518082815260200191505060405180910390a1505050565b612b4a336136c2565b565b60008160036007811115612b5c57fe5b60076000838152602001908152602001600020600b0160009054906101000a900460ff166007811115612b8b57fe5b141515612c00576040517f08c379a00000000000000000000000000000000000000000000000000000000081526004018080602001828103825260178152602001807f466f7253616c6520737461747573206e6f74206d65742100000000000000000081525060200191505060405180910390fd5b82803410151515612c79576040517f08c379a000000000000000000000000000000000000000000000000000000000815260040180806020018281038252601d8152602001807f50616964206e6f7420656e6f75676820666f7220746865204974656d2100000081525060200191505060405180910390fd5b83600080600760008881526020019081526020016000209550338660020160006101000a81548173ffffffffffffffffffffffffffffffffffffffff021916908373ffffffffffffffffffffffffffffffffffffffff1602179055503386600d0160006101000a81548173ffffffffffffffffffffffffffffffffffffffff021916908373ffffffffffffffffffffffffffffffffffffffff1602179055503386600b0160016101000a81548173ffffffffffffffffffffffffffffffffffffffff021916908373ffffffffffffffffffffffffffffffffffffffff160217905550600486600b0160006101000a81548160ff02191690836007811115612d7c57fe5b02179055508560030160009054906101000a900473ffffffffffffffffffffffffffffffffffffffff1673ffffffffffffffffffffffffffffffffffffffff166108fc87600a01549081150290604051600060405180830381858888f19350505050158015612def573d6000803e3d6000fd5b507f92f64ca637d023f354075a4be751b169c1a8a9ccb6d33cdd0cb35205439957276005546040518082815260200191505060405180910390a160076000848152602001908152602001600020600a0154915081340390503373ffffffffffffffffffffffffffffffffffffffff166108fc829081150290604051600060405180830381858888f19350505050158015612e8d573d6000803e3d6000fd5b5050505050505050565b60008160016007811115612ea757fe5b60076000838152602001908152602001600020600b0160009054906101000a900460ff166007811115612ed657fe5b141515612f4b576040517f08c379a00000000000000000000000000000000000000000000000000000000081526004018080602001828103825260198152602001807f50726f63657373656420737461747573206e6f74206d6574210000000000000081525060200191505060405180910390fd5b612f54336125dc565b1515612fc8576040517f08c379a00000000000000000000000000000000000000000000000000000000081526004018080602001828103825260138152602001807f4661726d657220726f6c65206d697373696e670000000000000000000000000081525060200191505060405180910390fd5b6007600084815260200190815260200160002091503373ffffffffffffffffffffffffffffffffffffffff168260030160009054906101000a900473ffffffffffffffffffffffffffffffffffffffff1673ffffffffffffffffffffffffffffffffffffffff161415156130ca576040517f08c379a000000000000000000000000000000000000000000000000000000000815260040180806020018281038252602f8152602001807f4f726967696e204661726d657220494420646f6573206e6f74206d617463682081526020017f73656e646572206164647265737321000000000000000000000000000000000081525060400191505060405180910390fd5b600282600b0160006101000a81548160ff021916908360078111156130eb57fe5b0217905550600260078111156130fd57fe5b82600b0160009054906101000a900460ff16600781111561311a57fe5b14151561318f576040517f08c379a000000000000000000000000000000000000000000000000000000000815260040180806020018281038252601c8152602001807f436f756c64206e6f74206368616e6765206974656d207374617465210000000081525060200191505060405180910390fd5b7f9b3b66e2380b690bae22c73ef1428fb0c91e72fe14a4b6defa13035214187aff6005546040518082815260200191505060405180910390a1505050565b600081600460078111156131dd57fe5b60076000838152602001908152602001600020600b0160009054906101000a900460ff16600781111561320c57fe5b141515613281576040517f08c379a00000000000000000000000000000000000000000000000000000000081526004018080602001828103825260148152602001807f536f6c6420737461747573206e6f74206d65742100000000000000000000000081525060200191505060405180910390fd5b61328a33612417565b15156132fe576040517f08c379a00000000000000000000000000000000000000000000000000000000081526004018080602001828103825260188152602001807f4469737472696275746f7220726f6c65206d697373696e67000000000000000081525060200191505060405180910390fd5b6007600084815260200190815260200160002091503382600b0160016101000a81548173ffffffffffffffffffffffffffffffffffffffff021916908373ffffffffffffffffffffffffffffffffffffffff160217905550600582600b0160006101000a81548160ff0219169083600781111561337757fe5b02179055507ff00b9a5725b80c54016f42114f6ed7792d22eecb116011c4afac29c57bef6c95836040518082815260200191505060405180910390a1505050565b6133cc81600361371c90919063ffffffff16565b8073ffffffffffffffffffffffffffffffffffffffff167f28b26e7a3d20aedbc5f8f2ebf7da671c0491723a2b78f47a097b0e46dee0714260405160405180910390a250565b60008073ffffffffffffffffffffffffffffffffffffffff168273ffffffffffffffffffffffffffffffffffffffff161415151561344f57600080fd5b8260000160008373ffffffffffffffffffffffffffffffffffffffff1673ffffffffffffffffffffffffffffffffffffffff16815260200190815260200160002060009054906101000a900460ff16905092915050565b6134ba8160036137cc90919063ffffffff16565b8073ffffffffffffffffffffffffffffffffffffffff167fe3f5ed5f263f1f01764a96edfc7d025f511ec5f7d180e8816908b78bcf74f09860405160405180910390a250565b6135148160026137cc90919063ffffffff16565b8073ffffffffffffffffffffffffffffffffffffffff167f126174f6cf49c81cdb4a9214c6b8f037bef55b4ec31e4fc776cea2a1c8a88d5960405160405180910390a250565b61356e81600261371c90919063ffffffff16565b8073ffffffffffffffffffffffffffffffffffffffff167fddbf200aa634dc3fb81cfd68583dd1040d1c751d335e1d86b631bde3e977fea860405160405180910390a250565b6135c881600061371c90919063ffffffff16565b8073ffffffffffffffffffffffffffffffffffffffff167f2e0ded4123377a3c2bc9a26f1717655a129e2f20752924d42e730ec89c83dbd060405160405180910390a250565b6136228160006137cc90919063ffffffff16565b8073ffffffffffffffffffffffffffffffffffffffff167fa5e0f060af304ab17dd418c7927e3da3ae7868189bf387aee09ab179ccc572f260405160405180910390a250565b61367c81600161371c90919063ffffffff16565b8073ffffffffffffffffffffffffffffffffffffffff167f71ae26cad02663e3d92efd6ec56031a80d74a20c0ab4183faa8bf262261c9baa60405160405180910390a250565b6136d68160016137cc90919063ffffffff16565b8073ffffffffffffffffffffffffffffffffffffffff167fdb7176e79cffef81cb01767dd0447a0b24bb72ca9778d4b245581086b2a7e6db60405160405180910390a250565b600073ffffffffffffffffffffffffffffffffffffffff168173ffffffffffffffffffffffffffffffffffffffff161415151561375857600080fd5b6137628282613412565b15151561376e57600080fd5b60018260000160008373ffffffffffffffffffffffffffffffffffffffff1673ffffffffffffffffffffffffffffffffffffffff16815260200190815260200160002060006101000a81548160ff0219169083151502179055505050565b600073ffffffffffffffffffffffffffffffffffffffff168173ffffffffffffffffffffffffffffffffffffffff161415151561380857600080fd5b6138128282613412565b151561381d57600080fd5b60008260000160008373ffffffffffffffffffffffffffffffffffffffff1673ffffffffffffffffffffffffffffffffffffffff16815260200190815260200160002060006101000a81548160ff0219169083151502179055505050565b828054600181600116156101000203166002900490600052602060002090601f016020900481019282601f106138bc57805160ff19168380011785556138ea565b828001600101855582156138ea579182015b828111156138e95782518255916020019190600101906138ce565b5b5090506138f79190613a6b565b5090565b6101e0604051908101604052806000815260200160008152602001600073ffffffffffffffffffffffffffffffffffffffff168152602001600073ffffffffffffffffffffffffffffffffffffffff168152602001606081526020016060815260200160608152602001606081526020016000815260200160608152602001600081526020016000600781111561398e57fe5b8152602001600073ffffffffffffffffffffffffffffffffffffffff168152602001600073ffffffffffffffffffffffffffffffffffffffff168152602001600073ffffffffffffffffffffffffffffffffffffffff1681525090565b828054600181600116156101000203166002900490600052602060002090601f016020900481019282601f10613a2c57805160ff1916838001178555613a5a565b82800160010185558215613a5a579182015b82811115613a59578251825591602001919060010190613a3e565b5b509050613a679190613a6b565b5090565b613a8d91905b80821115613a89576000816000905550600101613a71565b5090565b905600a165627a7a723058201ac457a3729d0caf5dbe4abd38732a72cf86a209e067ff64d6de147a221a51200029",
  "source": "pragma solidity ^0.4.24;\n\nimport \"../coffeeaccesscontrol/FarmerRole.sol\";\nimport \"../coffeeaccesscontrol/RetailerRole.sol\";\nimport \"../coffeeaccesscontrol/DistributorRole.sol\";\nimport \"../coffeeaccesscontrol/ConsumerRole.sol\";\n// Define a contract 'Supplychain'\ncontract SupplyChain is FarmerRole, RetailerRole, DistributorRole, ConsumerRole {\n\n    // Define 'owner'\n    address owner;\n\n    // Define a variable called 'upc' for Universal Product Code (UPC)\n    uint  upc;\n\n    // Define a variable called 'sku' for Stock Keeping Unit (SKU)\n    uint  sku;\n\n    // Define enum 'State' with the following values:\n    enum State\n    {\n        Harvested, // 0\n        Processed, // 1\n        Packed, // 2\n        ForSale, // 3\n        Sold, // 4\n        Shipped, // 5\n        Received, // 6\n        Purchased   // 7\n    }\n\n\n\n    State constant defaultState = State.Harvested;\n\n    // Define a struct 'Item' with the following fields:\n    struct Item {\n        uint sku;  // Stock Keeping Unit (SKU)\n        uint upc; // Universal Product Code (UPC), generated by the Farmer, goes on the package, can be verified by the Consumer\n        address ownerID;  // Metamask-Ethereum address of the current owner as the product moves through 8 stages\n        address originFarmerID; // Metamask-Ethereum address of the Farmer\n        string originFarmName; // Farmer Name\n        string originFarmInformation;  // Farmer Information\n        string originFarmLatitude; // Farm Latitude\n        string originFarmLongitude;  // Farm Longitude\n        uint productID;  // Product ID potentially a combination of upc + sku\n        string productNotes; // Product Notes\n        uint productPrice; // Product Price\n        State itemState;  // Product State as represented in the enum above\n        address distributorID;  // Metamask-Ethereum address of the Distributor\n        address retailerID; // Metamask-Ethereum address of the Retailer\n        address consumerID; // Metamask-Ethereum address of the Consumer\n    }\n\n    // Define a public mapping 'items' that maps the UPC to an Item.\n    mapping(uint => Item) items;\n\n    // Define a public mapping 'itemsHistory' that maps the UPC to an array of TxHash,\n    // that track its journey through the supply chain -- to be sent from DApp.\n    mapping(uint => string[]) itemsHistory;\n\n\n    // Define 8 events with the same 8 state values and accept 'upc' as input argument\n    event Harvested(uint upc);\n    event Processed(uint upc);\n    event Packed(uint upc);\n    event ForSale(uint upc);\n    event Sold(uint upc);\n    event Shipped(uint upc);\n    event Received(uint upc);\n    event Purchased(uint upc);\n\n    // Define a modifer that checks to see if msg.sender == owner of the contract\n    modifier onlyOwner() {\n        require(msg.sender == owner);\n        _;\n    }\n\n    // Define a modifer that verifies the Caller\n    modifier verifyCaller (address _address) {\n        require(msg.sender == _address);\n        _;\n    }\n\n    // Define a modifier that checks if the paid amount is sufficient to cover the price\n    modifier paidEnough(uint _price) {\n        require(msg.value >= _price, 'Paid not enough for the Item!');\n        _;\n    }\n\n    // Define a modifier that checks the price and refunds the remaining balance\n    modifier checkValue(uint _upc) {\n        _;\n        uint _price = items[_upc].productPrice;\n        uint amountToReturn = msg.value - _price;\n        msg.sender.transfer(amountToReturn);\n    }\n\n\n//    contract Sharer {\n//    function sendHalf(address payable addr) public payable returns (uint balance) {\n//        require(msg.value % 2 == 0, \"Even value required.\");\n//        uint balanceBeforeTransfer = address(this).balance;\n//        addr.transfer(msg.value / 2);\n//        // Since transfer throws an exception on failure and\n//        // cannot call back here, there should be no way for us to\n//        // still have half of the money.\n//        assert(address(this).balance == balanceBeforeTransfer - msg.value / 2);\n//        return address(this).balance;\n//    }\n//}\n\n    // Define a modifier that checks if an item.state of a upc is Harvested\n    modifier harvested(uint _upc) {\n        require(items[_upc].itemState == State.Harvested, 'Harvested status not met!');\n        _;\n    }\n\n    // Define a modifier that checks if an item.state of a upc is Processed\n    modifier processed(uint _upc) {\n        require(items[_upc].itemState == State.Processed, 'Processed status not met!');\n        _;\n    }\n\n    // Define a modifier that checks if an item.state of a upc is Packed\n    modifier packed(uint _upc) {\n        require(items[_upc].itemState == State.Packed, 'Packed status not met!');\n        _;\n    }\n\n    // Define a modifier that checks if an item.state of a upc is ForSale\n    modifier forSale(uint _upc) {\n        require(items[_upc].itemState == State.ForSale, 'ForSale status not met!');\n        _;\n    }\n\n    // Define a modifier that checks if an item.state of a upc is Sold\n    modifier sold(uint _upc) {\n        require(items[_upc].itemState == State.Sold, 'Sold status not met!');\n        _;\n    }\n\n    // Define a modifier that checks if an item.state of a upc is Shipped\n    modifier shipped(uint _upc) {\n        require(items[_upc].itemState == State.Shipped, 'Shipped status not met!');\n        _;\n    }\n\n    // Define a modifier that checks if an item.state of a upc is Received\n    modifier received(uint _upc) {\n        require(items[_upc].itemState == State.Received, 'Received status not met!');\n        _;\n    }\n\n    // Define a modifier that checks if an item.state of a upc is Purchased\n    modifier purchased(uint _upc) {\n        require(items[_upc].itemState == State.Purchased, 'Purchased status not met!');\n        _;\n    }\n\n    // In the constructor set 'owner' to the address that instantiated the contract\n    // and set 'sku' to 1\n    // and set 'upc' to 1\n    constructor() public payable {\n        owner = msg.sender;\n        sku = 1;\n        upc = 1;\n    }\n\n    // Define a function 'kill' if required\n    function kill() public {\n        if (msg.sender == owner) {\n            selfdestruct(owner);\n        }\n    }\n\n\n    function getState(uint _upc) public view returns (string memory)\n    {\n        return _toStateString(items[_upc].itemState);\n    }\n\n    function _toStateString(State _state) public pure returns (string memory) {\n        // Loop through possible options\n        if (_state == State.Harvested) return \"Harvested\";\n        if (_state == State.Processed) return \"Processed\";\n        if (_state == State.Packed) return \"Packed\";\n        if (_state == State.ForSale) return \"ForSale\";\n        if (_state == State.Sold) return \"Sold\";\n        if (_state == State.Shipped) return \"Shipped\";\n        if (_state == State.Received) return \"Received\";\n        if (_state == State.Purchased) return \"Purchased\";\n        return '';\n    }\n\n\n    // Define a function 'harvestItem' that allows a farmer to mark an item 'Harvested'\n    function harvestItem(uint _upc, address _originFarmerID, string _originFarmName, string _originFarmInformation,\n        string _originFarmLatitude, string _originFarmLongitude, string _productNotes) public\n    {\n        // Add the new item as part of Harvest\n        items[_upc] = Item(sku,\n            _upc,\n            _originFarmerID,\n            _originFarmerID, // Metamask-Ethereum address of the Farmer\n            _originFarmName, // Farmer Name\n            _originFarmInformation, // Farmer Information\n            _originFarmLatitude, // Farm Latitude\n            _originFarmLongitude, // Farm Longitude\n            _upc + sku, // Product ID potentially a combination of upc + sku\n            _productNotes, // Product Notes\n            uint(0), // Product Price\n            State.Harvested, // Product State as represented in the enum above\n            address(0), // Metamask-Ethereum address of the Distributor\n            address(0), // Metamask-Ethereum address of the Retailer\n            address(0) // Metamask-Ethereum address of the Consumer);\n        );\n        addFarmer(_originFarmerID);\n        // Increment sku\n        sku = sku + 1;\n        // Emit the appropriate event\n        emit Harvested(_upc);\n    }\n\n    // Define a function 'processtItem' that allows a farmer to mark an item 'Processed'\n    function processItem(uint _upc) public\n        // Call modifier to check if upc has passed previous supply chain stage\n    harvested(_upc)\n        // Call modifier to verify caller of this function\n    onlyFarmer\n\n    {\n        // Update the appropriate fields\n        Item storage item = items[_upc];\n\n        require(item.originFarmerID == msg.sender, 'Origin Farmer ID does not match sender address!');\n\n        item.itemState = State.Processed;\n\n        item.productNotes = 'process Item DONE';\n\n        require(item.itemState == State.Processed, 'Could not change item state!');\n\n        // Emit the appropriate event\n        emit Processed(_upc);\n\n    }\n\n    // Define a function 'packItem' that allows a farmer to mark an item 'Packed'\n    function packItem(uint _upc) public\n        // Call modifier to check if upc has passed previous supply chain stage\n    processed(_upc)\n        // Call modifier to verify caller of this function\n    onlyFarmer\n    {\n        // Update the appropriate fields\n        Item storage item = items[_upc];\n        require(item.originFarmerID == msg.sender, 'Origin Farmer ID does not match sender address!');\n\n        item.itemState = State.Packed;\n\n        require(item.itemState == State.Packed, 'Could not change item state!');\n\n        // Emit the appropriate event\n        emit Packed(upc);\n\n    }\n\n    // Define a function 'sellItem' that allows a farmer to mark an item 'ForSale'\n    function sellItem(uint _upc, uint _price) public\n        // Call modifier to check if upc has passed previous supply chain stage\n    packed(_upc)\n        // Call modifier to verify caller of this function\n    onlyFarmer\n    {\n        // Update the appropriate fields\n        Item storage item = items[_upc];\n        require(item.originFarmerID == msg.sender);\n\n        item.productPrice = _price;\n        item.itemState = State.ForSale;\n\n        require(item.itemState == State.ForSale, 'Could not change item state!');\n\n        // Emit the appropriate event\n        emit ForSale(upc);\n    }\n\n    // Define a function 'buyItem' that allows the disributor to mark an item 'Sold'\n    // Use the above defined modifiers to check if the item is available for sale, if the buyer has paid enough,\n    // and any excess ether sent is refunded back to the buyer\n    function buyItem(uint _upc) public payable\n        // Call modifier to check if upc has passed previous supply chain stage\n    forSale(_upc)\n        // Call modifer to check if buyer has paid enough\n    paidEnough(_upc)\n        // Call modifer to send any excess ether back to buyer\n    checkValue(_upc)\n    {\n        // Update the appropriate fields - ownerID, distributorID, itemState\n        Item storage item = items[_upc];\n\n        item.ownerID = msg.sender;\n        item.consumerID = msg.sender;\n        item.distributorID = msg.sender;\n        item.itemState = State.Sold;\n\n        // Transfer money to farmer\n        item.originFarmerID.transfer(item.productPrice);\n\n        // emit the appropriate event\n        emit Sold(upc);\n    }\n\n    // Define a function 'shipItem' that allows the distributor to mark an item 'Shipped'\n    // Use the above modifers to check if the item is sold\n    function shipItem(uint _upc) public\n        // Call modifier to check if upc has passed previous supply chain stage\n    sold(_upc)\n        // Call modifier to verify caller of this function\n    onlyDistributor\n    {\n        // Update the appropriate fields\n        Item storage item = items[_upc];\n        item.distributorID = msg.sender;\n        item.itemState = State.Shipped;\n\n        // Emit the appropriate event\n        emit Shipped(_upc);\n\n    }\n\n    // Define a function 'receiveItem' that allows the retailer to mark an item 'Received'\n    // Use the above modifiers to check if the item is shipped\n    function receiveItem(uint _upc) public\n        // Call modifier to check if upc has passed previous supply chain stage\n    shipped(_upc)\n        // Access Control List enforced by calling Smart Contract / DApp\n    onlyRetailer\n    {\n        // Update the appropriate fields - ownerID, retailerID, itemState\n        Item storage item = items[_upc];\n        item.itemState = State.Received;\n\n        // Emit the appropriate event\n        emit Received(_upc);\n\n    }\n\n    // Define a function 'purchaseItem' that allows the consumer to mark an item 'Purchased'\n    // Use the above modifiers to check if the item is received\n    function purchaseItem(uint _upc) public\n        // Call modifier to check if upc has passed previous supply chain stage\n    received(_upc)\n        // Access Control List enforced by calling Smart Contract / DApp\n    onlyConsumer\n    {\n        // Update the appropriate fields - ownerID, consumerID, itemState\n        Item storage item = items[_upc];\n        item.itemState = State.Purchased;\n\n        // Emit the appropriate event\n        emit Purchased(_upc);\n\n    }\n\n    // Define a function 'fetchItemBufferOne' that fetches the data\n    function fetchItemBufferOne(uint _upc) public view returns\n    (\n        uint itemSKU,\n        uint itemUPC,\n        address ownerID,\n        address originFarmerID,\n        string originFarmName,\n        string originFarmInformation,\n        string originFarmLatitude,\n        string originFarmLongitude\n    )\n    {\n        // Assign values to the 8 parameters\n        Item memory item = items[_upc];\n\n        return\n        (item.sku,\n        item.upc,\n        item.ownerID,\n        item.originFarmerID,\n        item.originFarmName,\n        item.originFarmInformation,\n        item.originFarmLatitude,\n        item.originFarmLongitude);\n    }\n\n    // Define a function 'fetchItemBufferTwo' that fetches the data\n    function fetchItemBufferTwo(uint _upc) public view returns\n    (\n        uint itemSKU,\n        uint itemUPC,\n        uint productID,\n        string productNotes,\n        uint productPrice,\n        uint itemState,\n        address distributorID,\n        address retailerID,\n        address consumerID\n    )\n    {\n        // Assign values to the 9 parameters\n        Item memory item = items[_upc];\n        itemSKU = item.sku;\n        itemUPC = item.upc;\n        productID = item.productID;\n        productNotes = item.productNotes;\n        productPrice = item.productPrice;\n        itemState = uint(item.itemState);\n        distributorID = item.distributorID;\n        retailerID = item.retailerID;\n        consumerID = item.consumerID;\n\n        return;\n\n    }\n\n\n}\n",
  "sourcePath": "/Users/tonibuenter/_proj/misc/udacity/project-6/contracts/coffeebase/SupplyChain.sol",
  "compiler": {
    "name": "solc",
    "version": "0.4.24+commit.e67f0147.Emscripten.clang"
  },
  "schemaVersion": "3.3.4",
  "updatedAt": "2021-05-04T15:17:34.859Z",
  "networkType": "ethereum",
  "devdoc": {
    "methods": {}
  },
  "userdoc": {
    "methods": {}
  }
}