{
  "contractName": "SupplyChain",
  "abi": [
    {
      "constant": false,
      "inputs": [
        {
          "name": "account",
          "type": "address"
        }
      ],
      "name": "addConsumer",
      "outputs": [],
      "payable": false,
      "stateMutability": "nonpayable",
      "type": "function"
    },
    {
      "constant": false,
      "inputs": [],
      "name": "kill",
      "outputs": [],
      "payable": false,
      "stateMutability": "nonpayable",
      "type": "function"
    },
    {
      "constant": true,
      "inputs": [
        {
          "name": "account",
          "type": "address"
        }
      ],
      "name": "isRetailer",
      "outputs": [
        {
          "name": "",
          "type": "bool"
        }
      ],
      "payable": false,
      "stateMutability": "view",
      "type": "function"
    },
    {
      "constant": false,
      "inputs": [],
      "name": "renounceConsumer",
      "outputs": [],
      "payable": false,
      "stateMutability": "nonpayable",
      "type": "function"
    },
    {
      "constant": false,
      "inputs": [],
      "name": "renounceDistributor",
      "outputs": [],
      "payable": false,
      "stateMutability": "nonpayable",
      "type": "function"
    },
    {
      "constant": false,
      "inputs": [],
      "name": "renounceOwnership",
      "outputs": [],
      "payable": false,
      "stateMutability": "nonpayable",
      "type": "function"
    },
    {
      "constant": false,
      "inputs": [
        {
          "name": "account",
          "type": "address"
        }
      ],
      "name": "addDistributor",
      "outputs": [],
      "payable": false,
      "stateMutability": "nonpayable",
      "type": "function"
    },
    {
      "constant": false,
      "inputs": [
        {
          "name": "account",
          "type": "address"
        }
      ],
      "name": "addFarmer",
      "outputs": [],
      "payable": false,
      "stateMutability": "nonpayable",
      "type": "function"
    },
    {
      "constant": false,
      "inputs": [],
      "name": "renounceFarmer",
      "outputs": [],
      "payable": false,
      "stateMutability": "nonpayable",
      "type": "function"
    },
    {
      "constant": true,
      "inputs": [
        {
          "name": "account",
          "type": "address"
        }
      ],
      "name": "isConsumer",
      "outputs": [
        {
          "name": "",
          "type": "bool"
        }
      ],
      "payable": false,
      "stateMutability": "view",
      "type": "function"
    },
    {
      "constant": true,
      "inputs": [],
      "name": "owner",
      "outputs": [
        {
          "name": "",
          "type": "address"
        }
      ],
      "payable": false,
      "stateMutability": "view",
      "type": "function"
    },
    {
      "constant": false,
      "inputs": [
        {
          "name": "account",
          "type": "address"
        }
      ],
      "name": "addRetailer",
      "outputs": [],
      "payable": false,
      "stateMutability": "nonpayable",
      "type": "function"
    },
    {
      "constant": true,
      "inputs": [
        {
          "name": "account",
          "type": "address"
        }
      ],
      "name": "isDistributor",
      "outputs": [
        {
          "name": "",
          "type": "bool"
        }
      ],
      "payable": false,
      "stateMutability": "view",
      "type": "function"
    },
    {
      "constant": true,
      "inputs": [],
      "name": "isOwner",
      "outputs": [
        {
          "name": "",
          "type": "bool"
        }
      ],
      "payable": false,
      "stateMutability": "view",
      "type": "function"
    },
    {
      "constant": true,
      "inputs": [
        {
          "name": "account",
          "type": "address"
        }
      ],
      "name": "isFarmer",
      "outputs": [
        {
          "name": "",
          "type": "bool"
        }
      ],
      "payable": false,
      "stateMutability": "view",
      "type": "function"
    },
    {
      "constant": false,
      "inputs": [],
      "name": "renounceRetailer",
      "outputs": [],
      "payable": false,
      "stateMutability": "nonpayable",
      "type": "function"
    },
    {
      "constant": false,
      "inputs": [
        {
          "name": "newOwner",
          "type": "address"
        }
      ],
      "name": "transferOwnership",
      "outputs": [],
      "payable": false,
      "stateMutability": "nonpayable",
      "type": "function"
    },
    {
      "inputs": [],
      "payable": false,
      "stateMutability": "nonpayable",
      "type": "constructor"
    },
    {
      "anonymous": false,
      "inputs": [
        {
          "indexed": false,
          "name": "upc",
          "type": "uint256"
        }
      ],
      "name": "Harvested",
      "type": "event"
    },
    {
      "anonymous": false,
      "inputs": [
        {
          "indexed": false,
          "name": "productID",
          "type": "uint256"
        }
      ],
      "name": "NewProductID",
      "type": "event"
    },
    {
      "anonymous": false,
      "inputs": [
        {
          "indexed": false,
          "name": "upc",
          "type": "uint256"
        }
      ],
      "name": "Processed",
      "type": "event"
    },
    {
      "anonymous": false,
      "inputs": [
        {
          "indexed": false,
          "name": "upc",
          "type": "uint256"
        }
      ],
      "name": "Packed",
      "type": "event"
    },
    {
      "anonymous": false,
      "inputs": [
        {
          "indexed": false,
          "name": "upc",
          "type": "uint256"
        }
      ],
      "name": "ForSale",
      "type": "event"
    },
    {
      "anonymous": false,
      "inputs": [
        {
          "indexed": false,
          "name": "upc",
          "type": "uint256"
        }
      ],
      "name": "Sold",
      "type": "event"
    },
    {
      "anonymous": false,
      "inputs": [
        {
          "indexed": false,
          "name": "upc",
          "type": "uint256"
        }
      ],
      "name": "Shipped",
      "type": "event"
    },
    {
      "anonymous": false,
      "inputs": [
        {
          "indexed": false,
          "name": "upc",
          "type": "uint256"
        }
      ],
      "name": "Received",
      "type": "event"
    },
    {
      "anonymous": false,
      "inputs": [
        {
          "indexed": false,
          "name": "upc",
          "type": "uint256"
        }
      ],
      "name": "Purchased",
      "type": "event"
    },
    {
      "anonymous": false,
      "inputs": [
        {
          "indexed": true,
          "name": "oldOwner",
          "type": "address"
        },
        {
          "indexed": true,
          "name": "newOwner",
          "type": "address"
        }
      ],
      "name": "TransferOwnership",
      "type": "event"
    },
    {
      "anonymous": false,
      "inputs": [
        {
          "indexed": true,
          "name": "account",
          "type": "address"
        }
      ],
      "name": "ConsumerAdded",
      "type": "event"
    },
    {
      "anonymous": false,
      "inputs": [
        {
          "indexed": true,
          "name": "account",
          "type": "address"
        }
      ],
      "name": "ConsumerRemoved",
      "type": "event"
    },
    {
      "anonymous": false,
      "inputs": [
        {
          "indexed": true,
          "name": "account",
          "type": "address"
        }
      ],
      "name": "DistributorAdded",
      "type": "event"
    },
    {
      "anonymous": false,
      "inputs": [
        {
          "indexed": true,
          "name": "account",
          "type": "address"
        }
      ],
      "name": "DistributorRemoved",
      "type": "event"
    },
    {
      "anonymous": false,
      "inputs": [
        {
          "indexed": true,
          "name": "account",
          "type": "address"
        }
      ],
      "name": "RetailerAdded",
      "type": "event"
    },
    {
      "anonymous": false,
      "inputs": [
        {
          "indexed": true,
          "name": "account",
          "type": "address"
        }
      ],
      "name": "RetailerRemoved",
      "type": "event"
    },
    {
      "anonymous": false,
      "inputs": [
        {
          "indexed": true,
          "name": "account",
          "type": "address"
        }
      ],
      "name": "FarmerAdded",
      "type": "event"
    },
    {
      "anonymous": false,
      "inputs": [
        {
          "indexed": true,
          "name": "account",
          "type": "address"
        }
      ],
      "name": "FarmerRemoved",
      "type": "event"
    },
    {
      "constant": true,
      "inputs": [
        {
          "name": "_upc",
          "type": "uint256"
        }
      ],
      "name": "getState",
      "outputs": [
        {
          "name": "",
          "type": "string"
        }
      ],
      "payable": false,
      "stateMutability": "view",
      "type": "function"
    },
    {
      "constant": true,
      "inputs": [
        {
          "name": "_state",
          "type": "uint8"
        }
      ],
      "name": "_toStateString",
      "outputs": [
        {
          "name": "",
          "type": "string"
        }
      ],
      "payable": false,
      "stateMutability": "pure",
      "type": "function"
    },
    {
      "constant": false,
      "inputs": [
        {
          "name": "_upc",
          "type": "uint256"
        },
        {
          "name": "_originFarmerID",
          "type": "address"
        },
        {
          "name": "_originFarmName",
          "type": "string"
        },
        {
          "name": "_originFarmInformation",
          "type": "string"
        },
        {
          "name": "_originFarmLatitude",
          "type": "string"
        },
        {
          "name": "_originFarmLongitude",
          "type": "string"
        },
        {
          "name": "_productNotes",
          "type": "string"
        },
        {
          "name": "_productImageHash",
          "type": "string"
        }
      ],
      "name": "harvestItem",
      "outputs": [],
      "payable": false,
      "stateMutability": "nonpayable",
      "type": "function"
    },
    {
      "constant": false,
      "inputs": [
        {
          "name": "_upc",
          "type": "uint256"
        }
      ],
      "name": "processItem",
      "outputs": [],
      "payable": false,
      "stateMutability": "nonpayable",
      "type": "function"
    },
    {
      "constant": false,
      "inputs": [
        {
          "name": "_upc",
          "type": "uint256"
        }
      ],
      "name": "packItem",
      "outputs": [],
      "payable": false,
      "stateMutability": "nonpayable",
      "type": "function"
    },
    {
      "constant": false,
      "inputs": [
        {
          "name": "_upc",
          "type": "uint256"
        },
        {
          "name": "_price",
          "type": "uint256"
        }
      ],
      "name": "sellItem",
      "outputs": [],
      "payable": false,
      "stateMutability": "nonpayable",
      "type": "function"
    },
    {
      "constant": false,
      "inputs": [
        {
          "name": "_upc",
          "type": "uint256"
        }
      ],
      "name": "buyItem",
      "outputs": [],
      "payable": true,
      "stateMutability": "payable",
      "type": "function"
    },
    {
      "constant": false,
      "inputs": [
        {
          "name": "_upc",
          "type": "uint256"
        }
      ],
      "name": "shipItem",
      "outputs": [],
      "payable": false,
      "stateMutability": "nonpayable",
      "type": "function"
    },
    {
      "constant": false,
      "inputs": [
        {
          "name": "_upc",
          "type": "uint256"
        }
      ],
      "name": "receiveItem",
      "outputs": [],
      "payable": false,
      "stateMutability": "nonpayable",
      "type": "function"
    },
    {
      "constant": false,
      "inputs": [
        {
          "name": "_upc",
          "type": "uint256"
        }
      ],
      "name": "purchaseItem",
      "outputs": [],
      "payable": false,
      "stateMutability": "nonpayable",
      "type": "function"
    },
    {
      "constant": true,
      "inputs": [
        {
          "name": "_upc",
          "type": "uint256"
        }
      ],
      "name": "fetchItemBufferOne",
      "outputs": [
        {
          "name": "itemSKU",
          "type": "uint256"
        },
        {
          "name": "itemUPC",
          "type": "uint256"
        },
        {
          "name": "ownerID",
          "type": "address"
        },
        {
          "name": "originFarmerID",
          "type": "address"
        },
        {
          "name": "originFarmName",
          "type": "string"
        },
        {
          "name": "originFarmInformation",
          "type": "string"
        },
        {
          "name": "originFarmLatitude",
          "type": "string"
        },
        {
          "name": "originFarmLongitude",
          "type": "string"
        },
        {
          "name": "productImageHash",
          "type": "string"
        }
      ],
      "payable": false,
      "stateMutability": "view",
      "type": "function"
    },
    {
      "constant": true,
      "inputs": [
        {
          "name": "_upc",
          "type": "uint256"
        }
      ],
      "name": "fetchItemBufferTwo",
      "outputs": [
        {
          "name": "itemSKU",
          "type": "uint256"
        },
        {
          "name": "itemUPC",
          "type": "uint256"
        },
        {
          "name": "productID",
          "type": "uint256"
        },
        {
          "name": "productNotes",
          "type": "string"
        },
        {
          "name": "productPrice",
          "type": "uint256"
        },
        {
          "name": "itemState",
          "type": "uint256"
        },
        {
          "name": "distributorID",
          "type": "address"
        },
        {
          "name": "retailerID",
          "type": "address"
        },
        {
          "name": "consumerID",
          "type": "address"
        }
      ],
      "payable": false,
      "stateMutability": "view",
      "type": "function"
    },
    {
      "constant": true,
      "inputs": [
        {
          "name": "_upc",
          "type": "uint256"
        }
      ],
      "name": "isUpcExists",
      "outputs": [
        {
          "name": "",
          "type": "bool"
        }
      ],
      "payable": false,
      "stateMutability": "view",
      "type": "function"
    }
  ],
  "bytecode": "0x60806040523480156200001157600080fd5b506200002c336200014e640100000000026401000000009004565b6200004633620001b8640100000000026401000000009004565b620000603362000222640100000000026401000000009004565b6200007a336200028c640100000000026401000000009004565b33600460006101000a81548173ffffffffffffffffffffffffffffffffffffffff021916908373ffffffffffffffffffffffffffffffffffffffff160217905550600460009054906101000a900473ffffffffffffffffffffffffffffffffffffffff1673ffffffffffffffffffffffffffffffffffffffff16600073ffffffffffffffffffffffffffffffffffffffff167f5c486528ec3e3f0ea91181cff8116f02bfa350e03b8b6f12e00765adbb5af85c60405160405180910390a360016006819055506001600581905550620004d8565b62000172816000620002f6640100000000026200423c179091906401000000009004565b8073ffffffffffffffffffffffffffffffffffffffff167f2e0ded4123377a3c2bc9a26f1717655a129e2f20752924d42e730ec89c83dbd060405160405180910390a250565b620001dc816001620002f6640100000000026200423c179091906401000000009004565b8073ffffffffffffffffffffffffffffffffffffffff167f71ae26cad02663e3d92efd6ec56031a80d74a20c0ab4183faa8bf262261c9baa60405160405180910390a250565b62000246816002620002f6640100000000026200423c179091906401000000009004565b8073ffffffffffffffffffffffffffffffffffffffff167fddbf200aa634dc3fb81cfd68583dd1040d1c751d335e1d86b631bde3e977fea860405160405180910390a250565b620002b0816003620002f6640100000000026200423c179091906401000000009004565b8073ffffffffffffffffffffffffffffffffffffffff167f28b26e7a3d20aedbc5f8f2ebf7da671c0491723a2b78f47a097b0e46dee0714260405160405180910390a250565b600073ffffffffffffffffffffffffffffffffffffffff168173ffffffffffffffffffffffffffffffffffffffff1614151515620003c2576040517f08c379a00000000000000000000000000000000000000000000000000000000081526004018080602001828103825260258152602001807f302d41646472657373206e6f7420616c6c6f77656420666f7220616464696e6781526020017f20726f6c6500000000000000000000000000000000000000000000000000000081525060400191505060405180910390fd5b620003dd828262000443640100000000026401000000009004565b15156200043f5760018260000160008373ffffffffffffffffffffffffffffffffffffffff1673ffffffffffffffffffffffffffffffffffffffff16815260200190815260200160002060006101000a81548160ff0219169083151502179055505b5050565b60008073ffffffffffffffffffffffffffffffffffffffff168273ffffffffffffffffffffffffffffffffffffffff16141515156200048157600080fd5b8260000160008373ffffffffffffffffffffffffffffffffffffffff1673ffffffffffffffffffffffffffffffffffffffff16815260200190815260200160002060009054906101000a900460ff16905092915050565b6145e880620004e86000396000f300608060405260043610610180576000357c0100000000000000000000000000000000000000000000000000000000900463ffffffff168063112940f91461018557806320d72a6e146101c857806327e8c6c21461020d5780632d923561146102b657806341c0e1b5146102ed57806344c9af281461030457806349dae766146103aa5780635da09b88146103d757806361e6982d14610432578063644241db1461044957806366225ff914610460578063715018a6146105c25780637250e224146105d957806377c459131461061c57806380c3f96d146108e657806380fc0ce414610929578063834ff739146109405780638da5cb5b1461099b5780638ec4f505146109f25780638f0c86fa14610a355780638f32d59b14610a90578063a26be99914610abf578063b942906914610aec578063c08ba09a14610b47578063d38ea5bf14610d38578063db0e6a2f14610d65578063e7fb74c714610d7c578063f2fde38b14610d9c578063f30fc48014610ddf578063f61c899a14610e0c575b600080fd5b34801561019157600080fd5b506101c6600480360381019080803573ffffffffffffffffffffffffffffffffffffffff169060200190929190505050610e39565b005b3480156101d457600080fd5b506101f360048036038101908080359060200190929190505050610e45565b604051808215151515815260200191505060405180910390f35b34801561021957600080fd5b5061023b600480360381019080803560ff169060200190929190505050611462565b6040518080602001828103825283818151815260200191508051906020019080838360005b8381101561027b578082015181840152602081019050610260565b50505050905090810190601f1680156102a85780820380516001836020036101000a031916815260200191505b509250505060405180910390f35b3480156102c257600080fd5b506102eb600480360381019080803590602001909291908035906020019092919050505061175c565b005b3480156102f957600080fd5b50610302611a0d565b005b34801561031057600080fd5b5061032f60048036038101908080359060200190929190505050611a5b565b6040518080602001828103825283818151815260200191508051906020019080838360005b8381101561036f578082015181840152602081019050610354565b50505050905090810190601f16801561039c5780820380516001836020036101000a031916815260200191505b509250505060405180910390f35b3480156103b657600080fd5b506103d560048036038101908080359060200190929190505050611a90565b005b3480156103e357600080fd5b50610418600480360381019080803573ffffffffffffffffffffffffffffffffffffffff169060200190929190505050611dc4565b604051808215151515815260200191505060405180910390f35b34801561043e57600080fd5b50610447611de1565b005b34801561045557600080fd5b5061045e611dec565b005b34801561046c57600080fd5b5061048b60048036038101908080359060200190929190505050611df7565b604051808a8152602001898152602001888152602001806020018781526020018681526020018573ffffffffffffffffffffffffffffffffffffffff1673ffffffffffffffffffffffffffffffffffffffff1681526020018473ffffffffffffffffffffffffffffffffffffffff1673ffffffffffffffffffffffffffffffffffffffff1681526020018373ffffffffffffffffffffffffffffffffffffffff1673ffffffffffffffffffffffffffffffffffffffff168152602001828103825288818151815260200191508051906020019080838360005b8381101561057f578082015181840152602081019050610564565b50505050905090810190601f1680156105ac5780820380516001836020036101000a031916815260200191505b509a505050505050505050505060405180910390f35b3480156105ce57600080fd5b506105d761245e565b005b3480156105e557600080fd5b5061061a600480360381019080803573ffffffffffffffffffffffffffffffffffffffff169060200190929190505050612532565b005b34801561062857600080fd5b506106476004803603810190808035906020019092919050505061253e565b604051808a81526020018981526020018873ffffffffffffffffffffffffffffffffffffffff1673ffffffffffffffffffffffffffffffffffffffff1681526020018773ffffffffffffffffffffffffffffffffffffffff1673ffffffffffffffffffffffffffffffffffffffff168152602001806020018060200180602001806020018060200186810386528b818151815260200191508051906020019080838360005b838110156107075780820151818401526020810190506106ec565b50505050905090810190601f1680156107345780820380516001836020036101000a031916815260200191505b5086810385528a818151815260200191508051906020019080838360005b8381101561076d578082015181840152602081019050610752565b50505050905090810190601f16801561079a5780820380516001836020036101000a031916815260200191505b50868103845289818151815260200191508051906020019080838360005b838110156107d35780820151818401526020810190506107b8565b50505050905090810190601f1680156108005780820380516001836020036101000a031916815260200191505b50868103835288818151815260200191508051906020019080838360005b8381101561083957808201518184015260208101905061081e565b50505050905090810190601f1680156108665780820380516001836020036101000a031916815260200191505b50868103825287818151815260200191508051906020019080838360005b8381101561089f578082015181840152602081019050610884565b50505050905090810190601f1680156108cc5780820380516001836020036101000a031916815260200191505b509e50505050505050505050505050505060405180910390f35b3480156108f257600080fd5b50610927600480360381019080803573ffffffffffffffffffffffffffffffffffffffff169060200190929190505050612ba2565b005b34801561093557600080fd5b5061093e612bae565b005b34801561094c57600080fd5b50610981600480360381019080803573ffffffffffffffffffffffffffffffffffffffff169060200190929190505050612bb9565b604051808215151515815260200191505060405180910390f35b3480156109a757600080fd5b506109b0612bd6565b604051808273ffffffffffffffffffffffffffffffffffffffff1673ffffffffffffffffffffffffffffffffffffffff16815260200191505060405180910390f35b3480156109fe57600080fd5b50610a33600480360381019080803573ffffffffffffffffffffffffffffffffffffffff169060200190929190505050612c00565b005b348015610a4157600080fd5b50610a76600480360381019080803573ffffffffffffffffffffffffffffffffffffffff169060200190929190505050612c0c565b604051808215151515815260200191505060405180910390f35b348015610a9c57600080fd5b50610aa5612c29565b604051808215151515815260200191505060405180910390f35b348015610acb57600080fd5b50610aea60048036038101908080359060200190929190505050612c81565b005b348015610af857600080fd5b50610b2d600480360381019080803573ffffffffffffffffffffffffffffffffffffffff169060200190929190505050612eaf565b604051808215151515815260200191505060405180910390f35b348015610b5357600080fd5b50610d3660048036038101908080359060200190929190803573ffffffffffffffffffffffffffffffffffffffff169060200190929190803590602001908201803590602001908080601f0160208091040260200160405190810160405280939291908181526020018383808284378201915050505050509192919290803590602001908201803590602001908080601f0160208091040260200160405190810160405280939291908181526020018383808284378201915050505050509192919290803590602001908201803590602001908080601f0160208091040260200160405190810160405280939291908181526020018383808284378201915050505050509192919290803590602001908201803590602001908080601f0160208091040260200160405190810160405280939291908181526020018383808284378201915050505050509192919290803590602001908201803590602001908080601f0160208091040260200160405190810160405280939291908181526020018383808284378201915050505050509192919290803590602001908201803590602001908080601f0160208091040260200160405190810160405280939291908181526020018383808284378201915050505050509192919290505050612ecc565b005b348015610d4457600080fd5b50610d63600480360381019080803590602001909291905050506132de565b005b348015610d7157600080fd5b50610d7a61350c565b005b610d9a60048036038101908080359060200190929190505050613517565b005b348015610da857600080fd5b50610ddd600480360381019080803573ffffffffffffffffffffffffffffffffffffffff16906020019092919050505061389c565b005b348015610deb57600080fd5b50610e0a600480360381019080803590602001909291905050506138bb565b005b348015610e1857600080fd5b50610e3760048036038101908080359060200190929190505050613bf1565b005b610e4281613ddc565b50565b6000610e4f614420565b60076000848152602001908152602001600020610200604051908101604052908160008201548152602001600182015481526020016002820160009054906101000a900473ffffffffffffffffffffffffffffffffffffffff1673ffffffffffffffffffffffffffffffffffffffff1673ffffffffffffffffffffffffffffffffffffffff1681526020016003820160009054906101000a900473ffffffffffffffffffffffffffffffffffffffff1673ffffffffffffffffffffffffffffffffffffffff1673ffffffffffffffffffffffffffffffffffffffff168152602001600482018054600181600116156101000203166002900480601f016020809104026020016040519081016040528092919081815260200182805460018160011615610100020316600290048015610fc85780601f10610f9d57610100808354040283529160200191610fc8565b820191906000526020600020905b815481529060010190602001808311610fab57829003601f168201915b50505050508152602001600582018054600181600116156101000203166002900480601f01602080910402602001604051908101604052809291908181526020018280546001816001161561010002031660029004801561106a5780601f1061103f5761010080835404028352916020019161106a565b820191906000526020600020905b81548152906001019060200180831161104d57829003601f168201915b50505050508152602001600682018054600181600116156101000203166002900480601f01602080910402602001604051908101604052809291908181526020018280546001816001161561010002031660029004801561110c5780601f106110e15761010080835404028352916020019161110c565b820191906000526020600020905b8154815290600101906020018083116110ef57829003601f168201915b50505050508152602001600782018054600181600116156101000203166002900480601f0160208091040260200160405190810160405280929190818152602001828054600181600116156101000203166002900480156111ae5780601f10611183576101008083540402835291602001916111ae565b820191906000526020600020905b81548152906001019060200180831161119157829003601f168201915b5050505050815260200160088201548152602001600982018054600181600116156101000203166002900480601f01602080910402602001604051908101604052809291908181526020018280546001816001161561010002031660029004801561125a5780601f1061122f5761010080835404028352916020019161125a565b820191906000526020600020905b81548152906001019060200180831161123d57829003601f168201915b50505050508152602001600a8201548152602001600b820160009054906101000a900460ff16600781111561128b57fe5b600781111561129657fe5b8152602001600b820160019054906101000a900473ffffffffffffffffffffffffffffffffffffffff1673ffffffffffffffffffffffffffffffffffffffff1673ffffffffffffffffffffffffffffffffffffffff168152602001600c820160009054906101000a900473ffffffffffffffffffffffffffffffffffffffff1673ffffffffffffffffffffffffffffffffffffffff1673ffffffffffffffffffffffffffffffffffffffff168152602001600d820160009054906101000a900473ffffffffffffffffffffffffffffffffffffffff1673ffffffffffffffffffffffffffffffffffffffff1673ffffffffffffffffffffffffffffffffffffffff168152602001600e82018054600181600116156101000203166002900480601f0160208091040260200160405190810160405280929190818152602001828054600181600116156101000203166002900480156114355780601f1061140a57610100808354040283529160200191611435565b820191906000526020600020905b81548152906001019060200180831161141857829003601f168201915b505050505081525050905060008160200151141515611457576001915061145c565b600091505b50919050565b60606000600781111561147157fe5b82600781111561147d57fe5b14156114c0576040805190810160405280600981526020017f48617276657374656400000000000000000000000000000000000000000000008152509050611757565b600160078111156114cd57fe5b8260078111156114d957fe5b141561151c576040805190810160405280600981526020017f50726f63657373656400000000000000000000000000000000000000000000008152509050611757565b6002600781111561152957fe5b82600781111561153557fe5b1415611578576040805190810160405280600681526020017f5061636b656400000000000000000000000000000000000000000000000000008152509050611757565b6003600781111561158557fe5b82600781111561159157fe5b14156115d4576040805190810160405280600781526020017f466f7253616c65000000000000000000000000000000000000000000000000008152509050611757565b600460078111156115e157fe5b8260078111156115ed57fe5b1415611630576040805190810160405280600481526020017f536f6c64000000000000000000000000000000000000000000000000000000008152509050611757565b6005600781111561163d57fe5b82600781111561164957fe5b141561168c576040805190810160405280600781526020017f53686970706564000000000000000000000000000000000000000000000000008152509050611757565b6006600781111561169957fe5b8260078111156116a557fe5b14156116e8576040805190810160405280600881526020017f52656365697665640000000000000000000000000000000000000000000000008152509050611757565b6007808111156116f457fe5b82600781111561170057fe5b1415611743576040805190810160405280600981526020017f50757263686173656400000000000000000000000000000000000000000000008152509050611757565b602060405190810160405280600081525090505b919050565b6000826002600781111561176c57fe5b60076000838152602001908152602001600020600b0160009054906101000a900460ff16600781111561179b57fe5b141515611810576040517f08c379a00000000000000000000000000000000000000000000000000000000081526004018080602001828103825260168152602001807f5061636b656420737461747573206e6f74206d6574210000000000000000000081525060200191505060405180910390fd5b61181933612eaf565b151561188d576040517f08c379a00000000000000000000000000000000000000000000000000000000081526004018080602001828103825260138152602001807f4661726d657220726f6c65206d697373696e670000000000000000000000000081525060200191505060405180910390fd5b6007600085815260200190815260200160002091503373ffffffffffffffffffffffffffffffffffffffff168260030160009054906101000a900473ffffffffffffffffffffffffffffffffffffffff1673ffffffffffffffffffffffffffffffffffffffff1614151561190057600080fd5b8282600a0181905550600382600b0160006101000a81548160ff0219169083600781111561192a57fe5b02179055506003600781111561193c57fe5b82600b0160009054906101000a900460ff16600781111561195957fe5b1415156119ce576040517f08c379a000000000000000000000000000000000000000000000000000000000815260040180806020018281038252601c8152602001807f436f756c64206e6f74206368616e6765206974656d207374617465210000000081525060200191505060405180910390fd5b7fa96ae0fc3224ebd79eebfe54bd130cc9cb94416cddd1f2386115e00b725324686005546040518082815260200191505060405180910390a150505050565b611a15612c29565b1515611a2057600080fd5b600460009054906101000a900473ffffffffffffffffffffffffffffffffffffffff1673ffffffffffffffffffffffffffffffffffffffff16ff5b6060611a8960076000848152602001908152602001600020600b0160009054906101000a900460ff16611462565b9050919050565b60008160006007811115611aa057fe5b60076000838152602001908152602001600020600b0160009054906101000a900460ff166007811115611acf57fe5b141515611b44576040517f08c379a00000000000000000000000000000000000000000000000000000000081526004018080602001828103825260198152602001807f48617276657374656420737461747573206e6f74206d6574210000000000000081525060200191505060405180910390fd5b611b4d33612eaf565b1515611bc1576040517f08c379a00000000000000000000000000000000000000000000000000000000081526004018080602001828103825260138152602001807f4661726d657220726f6c65206d697373696e670000000000000000000000000081525060200191505060405180910390fd5b6007600084815260200190815260200160002091503373ffffffffffffffffffffffffffffffffffffffff168260030160009054906101000a900473ffffffffffffffffffffffffffffffffffffffff1673ffffffffffffffffffffffffffffffffffffffff16141515611cc3576040517f08c379a000000000000000000000000000000000000000000000000000000000815260040180806020018281038252602f8152602001807f4f726967696e204661726d657220494420646f6573206e6f74206d617463682081526020017f73656e646572206164647265737321000000000000000000000000000000000081525060400191505060405180910390fd5b600182600b0160006101000a81548160ff02191690836007811115611ce457fe5b021790555060016007811115611cf657fe5b82600b0160009054906101000a900460ff166007811115611d1357fe5b141515611d88576040517f08c379a000000000000000000000000000000000000000000000000000000000815260040180806020018281038252601c8152602001807f436f756c64206e6f74206368616e6765206974656d207374617465210000000081525060200191505060405180910390fd5b7f5afe3b1bf87069693c075da5c22a98d63d1aef98a30dbbe538d0781a98b77ee5836040518082815260200191505060405180910390a1505050565b6000611dda826001613e3690919063ffffffff16565b9050919050565b611dea33613eca565b565b611df533613f24565b565b600080600060606000806000806000611e0e614420565b600760008c8152602001908152602001600020610200604051908101604052908160008201548152602001600182015481526020016002820160009054906101000a900473ffffffffffffffffffffffffffffffffffffffff1673ffffffffffffffffffffffffffffffffffffffff1673ffffffffffffffffffffffffffffffffffffffff1681526020016003820160009054906101000a900473ffffffffffffffffffffffffffffffffffffffff1673ffffffffffffffffffffffffffffffffffffffff1673ffffffffffffffffffffffffffffffffffffffff168152602001600482018054600181600116156101000203166002900480601f016020809104026020016040519081016040528092919081815260200182805460018160011615610100020316600290048015611f875780601f10611f5c57610100808354040283529160200191611f87565b820191906000526020600020905b815481529060010190602001808311611f6a57829003601f168201915b50505050508152602001600582018054600181600116156101000203166002900480601f0160208091040260200160405190810160405280929190818152602001828054600181600116156101000203166002900480156120295780601f10611ffe57610100808354040283529160200191612029565b820191906000526020600020905b81548152906001019060200180831161200c57829003601f168201915b50505050508152602001600682018054600181600116156101000203166002900480601f0160208091040260200160405190810160405280929190818152602001828054600181600116156101000203166002900480156120cb5780601f106120a0576101008083540402835291602001916120cb565b820191906000526020600020905b8154815290600101906020018083116120ae57829003601f168201915b50505050508152602001600782018054600181600116156101000203166002900480601f01602080910402602001604051908101604052809291908181526020018280546001816001161561010002031660029004801561216d5780601f106121425761010080835404028352916020019161216d565b820191906000526020600020905b81548152906001019060200180831161215057829003601f168201915b5050505050815260200160088201548152602001600982018054600181600116156101000203166002900480601f0160208091040260200160405190810160405280929190818152602001828054600181600116156101000203166002900480156122195780601f106121ee57610100808354040283529160200191612219565b820191906000526020600020905b8154815290600101906020018083116121fc57829003601f168201915b50505050508152602001600a8201548152602001600b820160009054906101000a900460ff16600781111561224a57fe5b600781111561225557fe5b8152602001600b820160019054906101000a900473ffffffffffffffffffffffffffffffffffffffff1673ffffffffffffffffffffffffffffffffffffffff1673ffffffffffffffffffffffffffffffffffffffff168152602001600c820160009054906101000a900473ffffffffffffffffffffffffffffffffffffffff1673ffffffffffffffffffffffffffffffffffffffff1673ffffffffffffffffffffffffffffffffffffffff168152602001600d820160009054906101000a900473ffffffffffffffffffffffffffffffffffffffff1673ffffffffffffffffffffffffffffffffffffffff1673ffffffffffffffffffffffffffffffffffffffff168152602001600e82018054600181600116156101000203166002900480601f0160208091040260200160405190810160405280929190818152602001828054600181600116156101000203166002900480156123f45780601f106123c9576101008083540402835291602001916123f4565b820191906000526020600020905b8154815290600101906020018083116123d757829003601f168201915b50505050508152505090508060000151995080602001519850806101000151975080610120015196508061014001519550806101600151600781111561243657fe5b94508061018001519350806101a001519250806101c001519150509193959799909294969850565b612466612c29565b151561247157600080fd5b600073ffffffffffffffffffffffffffffffffffffffff16600460009054906101000a900473ffffffffffffffffffffffffffffffffffffffff1673ffffffffffffffffffffffffffffffffffffffff167f5c486528ec3e3f0ea91181cff8116f02bfa350e03b8b6f12e00765adbb5af85c60405160405180910390a36000600460006101000a81548173ffffffffffffffffffffffffffffffffffffffff021916908373ffffffffffffffffffffffffffffffffffffffff160217905550565b61253b81613f7e565b50565b6000806000806060806060806060612554614420565b600760008c8152602001908152602001600020610200604051908101604052908160008201548152602001600182015481526020016002820160009054906101000a900473ffffffffffffffffffffffffffffffffffffffff1673ffffffffffffffffffffffffffffffffffffffff1673ffffffffffffffffffffffffffffffffffffffff1681526020016003820160009054906101000a900473ffffffffffffffffffffffffffffffffffffffff1673ffffffffffffffffffffffffffffffffffffffff1673ffffffffffffffffffffffffffffffffffffffff168152602001600482018054600181600116156101000203166002900480601f0160208091040260200160405190810160405280929190818152602001828054600181600116156101000203166002900480156126cd5780601f106126a2576101008083540402835291602001916126cd565b820191906000526020600020905b8154815290600101906020018083116126b057829003601f168201915b50505050508152602001600582018054600181600116156101000203166002900480601f01602080910402602001604051908101604052809291908181526020018280546001816001161561010002031660029004801561276f5780601f106127445761010080835404028352916020019161276f565b820191906000526020600020905b81548152906001019060200180831161275257829003601f168201915b50505050508152602001600682018054600181600116156101000203166002900480601f0160208091040260200160405190810160405280929190818152602001828054600181600116156101000203166002900480156128115780601f106127e657610100808354040283529160200191612811565b820191906000526020600020905b8154815290600101906020018083116127f457829003601f168201915b50505050508152602001600782018054600181600116156101000203166002900480601f0160208091040260200160405190810160405280929190818152602001828054600181600116156101000203166002900480156128b35780601f10612888576101008083540402835291602001916128b3565b820191906000526020600020905b81548152906001019060200180831161289657829003601f168201915b5050505050815260200160088201548152602001600982018054600181600116156101000203166002900480601f01602080910402602001604051908101604052809291908181526020018280546001816001161561010002031660029004801561295f5780601f106129345761010080835404028352916020019161295f565b820191906000526020600020905b81548152906001019060200180831161294257829003601f168201915b50505050508152602001600a8201548152602001600b820160009054906101000a900460ff16600781111561299057fe5b600781111561299b57fe5b8152602001600b820160019054906101000a900473ffffffffffffffffffffffffffffffffffffffff1673ffffffffffffffffffffffffffffffffffffffff1673ffffffffffffffffffffffffffffffffffffffff168152602001600c820160009054906101000a900473ffffffffffffffffffffffffffffffffffffffff1673ffffffffffffffffffffffffffffffffffffffff1673ffffffffffffffffffffffffffffffffffffffff168152602001600d820160009054906101000a900473ffffffffffffffffffffffffffffffffffffffff1673ffffffffffffffffffffffffffffffffffffffff1673ffffffffffffffffffffffffffffffffffffffff168152602001600e82018054600181600116156101000203166002900480601f016020809104026020016040519081016040528092919081815260200182805460018160011615610100020316600290048015612b3a5780601f10612b0f57610100808354040283529160200191612b3a565b820191906000526020600020905b815481529060010190602001808311612b1d57829003601f168201915b5050505050815250509050806000015181602001518260400151836060015184608001518560a001518660c001518760e00151886101e00151849450839350829250819150809050995099509950995099509950995099509950509193959799909294969850565b612bab81613fd8565b50565b612bb733614032565b565b6000612bcf826003613e3690919063ffffffff16565b9050919050565b6000600460009054906101000a900473ffffffffffffffffffffffffffffffffffffffff16905090565b612c098161408c565b50565b6000612c22826002613e3690919063ffffffff16565b9050919050565b6000600460009054906101000a900473ffffffffffffffffffffffffffffffffffffffff1673ffffffffffffffffffffffffffffffffffffffff163373ffffffffffffffffffffffffffffffffffffffff1614905090565b60008160056007811115612c9157fe5b60076000838152602001908152602001600020600b0160009054906101000a900460ff166007811115612cc057fe5b141515612d35576040517f08c379a00000000000000000000000000000000000000000000000000000000081526004018080602001828103825260178152602001807f5368697070656420737461747573206e6f74206d65742100000000000000000081525060200191505060405180910390fd5b612d3e33611dc4565b1515612db2576040517f08c379a00000000000000000000000000000000000000000000000000000000081526004018080602001828103825260158152602001807f52657461696c657220726f6c65206d697373696e67000000000000000000000081525060200191505060405180910390fd5b600760008481526020019081526020016000209150600682600b0160006101000a81548160ff02191690836007811115612de857fe5b0217905550338260020160006101000a81548173ffffffffffffffffffffffffffffffffffffffff021916908373ffffffffffffffffffffffffffffffffffffffff1602179055503382600c0160006101000a81548173ffffffffffffffffffffffffffffffffffffffff021916908373ffffffffffffffffffffffffffffffffffffffff1602179055507fa8142743f8f70a4c26f3691cf4ed59718381fb2f18070ec52be1f1022d855557836040518082815260200191505060405180910390a1505050565b6000612ec5826000613e3690919063ffffffff16565b9050919050565b6000600654890190506102006040519081016040528060065481526020018a81526020018973ffffffffffffffffffffffffffffffffffffffff1681526020018973ffffffffffffffffffffffffffffffffffffffff1681526020018881526020018781526020018681526020018581526020018281526020018481526020016000815260200160006007811115612f6057fe5b8152602001600073ffffffffffffffffffffffffffffffffffffffff168152602001600073ffffffffffffffffffffffffffffffffffffffff168152602001600073ffffffffffffffffffffffffffffffffffffffff16815260200183815250600760008b8152602001908152602001600020600082015181600001556020820151816001015560408201518160020160006101000a81548173ffffffffffffffffffffffffffffffffffffffff021916908373ffffffffffffffffffffffffffffffffffffffff16021790555060608201518160030160006101000a81548173ffffffffffffffffffffffffffffffffffffffff021916908373ffffffffffffffffffffffffffffffffffffffff1602179055506080820151816004019080519060200190613091929190614517565b5060a08201518160050190805190602001906130ae929190614517565b5060c08201518160060190805190602001906130cb929190614517565b5060e08201518160070190805190602001906130e8929190614517565b506101008201518160080155610120820151816009019080519060200190613111929190614517565b5061014082015181600a015561016082015181600b0160006101000a81548160ff0219169083600781111561314257fe5b021790555061018082015181600b0160016101000a81548173ffffffffffffffffffffffffffffffffffffffff021916908373ffffffffffffffffffffffffffffffffffffffff1602179055506101a082015181600c0160006101000a81548173ffffffffffffffffffffffffffffffffffffffff021916908373ffffffffffffffffffffffffffffffffffffffff1602179055506101c082015181600d0160006101000a81548173ffffffffffffffffffffffffffffffffffffffff021916908373ffffffffffffffffffffffffffffffffffffffff1602179055506101e082015181600e01908051906020019061323c929190614517565b5090505061324988612eaf565b15156132595761325888612ba2565b5b6001600654016006819055507f8e55ccfc9778ff8eba1646d765cf1982537ce0f9257054a17b48aad745250183896040518082815260200191505060405180910390a17f0114a26056a3084374963ed549e968ecae01b2275062d14fe0a667f688637eb5816040518082815260200191505060405180910390a1505050505050505050565b600081600660078111156132ee57fe5b60076000838152602001908152602001600020600b0160009054906101000a900460ff16600781111561331d57fe5b141515613392576040517f08c379a00000000000000000000000000000000000000000000000000000000081526004018080602001828103825260188152602001807f526563656976656420737461747573206e6f74206d657421000000000000000081525060200191505060405180910390fd5b61339b33612bb9565b151561340f576040517f08c379a00000000000000000000000000000000000000000000000000000000081526004018080602001828103825260158152602001807f436f6e73756d657220726f6c65206d697373696e67000000000000000000000081525060200191505060405180910390fd5b600760008481526020019081526020016000209150600782600b0160006101000a81548160ff0219169083600781111561344557fe5b0217905550338260020160006101000a81548173ffffffffffffffffffffffffffffffffffffffff021916908373ffffffffffffffffffffffffffffffffffffffff1602179055503382600d0160006101000a81548173ffffffffffffffffffffffffffffffffffffffff021916908373ffffffffffffffffffffffffffffffffffffffff1602179055507f653d56639fee6b566a5c804764e9689de38645f0b733df89a36a1b7b42173dd8836040518082815260200191505060405180910390a1505050565b613515336140e6565b565b6000816003600781111561352757fe5b60076000838152602001908152602001600020600b0160009054906101000a900460ff16600781111561355657fe5b1415156135cb576040517f08c379a00000000000000000000000000000000000000000000000000000000081526004018080602001828103825260178152602001807f466f7253616c6520737461747573206e6f74206d65742100000000000000000081525060200191505060405180910390fd5b6135d433612c0c565b1515613648576040517f08c379a00000000000000000000000000000000000000000000000000000000081526004018080602001828103825260188152602001807f4469737472696275746f7220726f6c65206d697373696e67000000000000000081525060200191505060405180910390fd5b828034101515156136c1576040517f08c379a000000000000000000000000000000000000000000000000000000000815260040180806020018281038252601d8152602001807f50616964206e6f7420656e6f75676820666f7220746865204974656d2100000081525060200191505060405180910390fd5b83600080600760008881526020019081526020016000209550338660020160006101000a81548173ffffffffffffffffffffffffffffffffffffffff021916908373ffffffffffffffffffffffffffffffffffffffff1602179055503386600b0160016101000a81548173ffffffffffffffffffffffffffffffffffffffff021916908373ffffffffffffffffffffffffffffffffffffffff160217905550600486600b0160006101000a81548160ff0219169083600781111561378157fe5b02179055508560030160009054906101000a900473ffffffffffffffffffffffffffffffffffffffff1673ffffffffffffffffffffffffffffffffffffffff166108fc87600a01549081150290604051600060405180830381858888f193505050501580156137f4573d6000803e3d6000fd5b507f92f64ca637d023f354075a4be751b169c1a8a9ccb6d33cdd0cb35205439957276005546040518082815260200191505060405180910390a160076000848152602001908152602001600020600a0154915081340390503373ffffffffffffffffffffffffffffffffffffffff166108fc829081150290604051600060405180830381858888f19350505050158015613892573d6000803e3d6000fd5b5050505050505050565b6138a4612c29565b15156138af57600080fd5b6138b881614140565b50565b600081600160078111156138cb57fe5b60076000838152602001908152602001600020600b0160009054906101000a900460ff1660078111156138fa57fe5b14151561396f576040517f08c379a00000000000000000000000000000000000000000000000000000000081526004018080602001828103825260198152602001807f50726f63657373656420737461747573206e6f74206d6574210000000000000081525060200191505060405180910390fd5b61397833612eaf565b15156139ec576040517f08c379a00000000000000000000000000000000000000000000000000000000081526004018080602001828103825260138152602001807f4661726d657220726f6c65206d697373696e670000000000000000000000000081525060200191505060405180910390fd5b6007600084815260200190815260200160002091503373ffffffffffffffffffffffffffffffffffffffff168260030160009054906101000a900473ffffffffffffffffffffffffffffffffffffffff1673ffffffffffffffffffffffffffffffffffffffff16141515613aee576040517f08c379a000000000000000000000000000000000000000000000000000000000815260040180806020018281038252602f8152602001807f4f726967696e204661726d657220494420646f6573206e6f74206d617463682081526020017f73656e646572206164647265737321000000000000000000000000000000000081525060400191505060405180910390fd5b600282600b0160006101000a81548160ff02191690836007811115613b0f57fe5b021790555060026007811115613b2157fe5b82600b0160009054906101000a900460ff166007811115613b3e57fe5b141515613bb3576040517f08c379a000000000000000000000000000000000000000000000000000000000815260040180806020018281038252601c8152602001807f436f756c64206e6f74206368616e6765206974656d207374617465210000000081525060200191505060405180910390fd5b7f9b3b66e2380b690bae22c73ef1428fb0c91e72fe14a4b6defa13035214187aff6005546040518082815260200191505060405180910390a1505050565b60008160046007811115613c0157fe5b60076000838152602001908152602001600020600b0160009054906101000a900460ff166007811115613c3057fe5b141515613ca5576040517f08c379a00000000000000000000000000000000000000000000000000000000081526004018080602001828103825260148152602001807f536f6c6420737461747573206e6f74206d65742100000000000000000000000081525060200191505060405180910390fd5b613cae33612c0c565b1515613d22576040517f08c379a00000000000000000000000000000000000000000000000000000000081526004018080602001828103825260188152602001807f4469737472696275746f7220726f6c65206d697373696e67000000000000000081525060200191505060405180910390fd5b6007600084815260200190815260200160002091503382600b0160016101000a81548173ffffffffffffffffffffffffffffffffffffffff021916908373ffffffffffffffffffffffffffffffffffffffff160217905550600582600b0160006101000a81548160ff02191690836007811115613d9b57fe5b02179055507ff00b9a5725b80c54016f42114f6ed7792d22eecb116011c4afac29c57bef6c95836040518082815260200191505060405180910390a1505050565b613df081600361423c90919063ffffffff16565b8073ffffffffffffffffffffffffffffffffffffffff167f28b26e7a3d20aedbc5f8f2ebf7da671c0491723a2b78f47a097b0e46dee0714260405160405180910390a250565b60008073ffffffffffffffffffffffffffffffffffffffff168273ffffffffffffffffffffffffffffffffffffffff1614151515613e7357600080fd5b8260000160008373ffffffffffffffffffffffffffffffffffffffff1673ffffffffffffffffffffffffffffffffffffffff16815260200190815260200160002060009054906101000a900460ff16905092915050565b613ede81600361437690919063ffffffff16565b8073ffffffffffffffffffffffffffffffffffffffff167fe3f5ed5f263f1f01764a96edfc7d025f511ec5f7d180e8816908b78bcf74f09860405160405180910390a250565b613f3881600261437690919063ffffffff16565b8073ffffffffffffffffffffffffffffffffffffffff167f126174f6cf49c81cdb4a9214c6b8f037bef55b4ec31e4fc776cea2a1c8a88d5960405160405180910390a250565b613f9281600261423c90919063ffffffff16565b8073ffffffffffffffffffffffffffffffffffffffff167fddbf200aa634dc3fb81cfd68583dd1040d1c751d335e1d86b631bde3e977fea860405160405180910390a250565b613fec81600061423c90919063ffffffff16565b8073ffffffffffffffffffffffffffffffffffffffff167f2e0ded4123377a3c2bc9a26f1717655a129e2f20752924d42e730ec89c83dbd060405160405180910390a250565b61404681600061437690919063ffffffff16565b8073ffffffffffffffffffffffffffffffffffffffff167fa5e0f060af304ab17dd418c7927e3da3ae7868189bf387aee09ab179ccc572f260405160405180910390a250565b6140a081600161423c90919063ffffffff16565b8073ffffffffffffffffffffffffffffffffffffffff167f71ae26cad02663e3d92efd6ec56031a80d74a20c0ab4183faa8bf262261c9baa60405160405180910390a250565b6140fa81600161437690919063ffffffff16565b8073ffffffffffffffffffffffffffffffffffffffff167fdb7176e79cffef81cb01767dd0447a0b24bb72ca9778d4b245581086b2a7e6db60405160405180910390a250565b600073ffffffffffffffffffffffffffffffffffffffff168173ffffffffffffffffffffffffffffffffffffffff161415151561417c57600080fd5b8073ffffffffffffffffffffffffffffffffffffffff16600460009054906101000a900473ffffffffffffffffffffffffffffffffffffffff1673ffffffffffffffffffffffffffffffffffffffff167f5c486528ec3e3f0ea91181cff8116f02bfa350e03b8b6f12e00765adbb5af85c60405160405180910390a380600460006101000a81548173ffffffffffffffffffffffffffffffffffffffff021916908373ffffffffffffffffffffffffffffffffffffffff16021790555050565b600073ffffffffffffffffffffffffffffffffffffffff168173ffffffffffffffffffffffffffffffffffffffff1614151515614307576040517f08c379a00000000000000000000000000000000000000000000000000000000081526004018080602001828103825260258152602001807f302d41646472657373206e6f7420616c6c6f77656420666f7220616464696e6781526020017f20726f6c6500000000000000000000000000000000000000000000000000000081525060400191505060405180910390fd5b6143118282613e36565b15156143725760018260000160008373ffffffffffffffffffffffffffffffffffffffff1673ffffffffffffffffffffffffffffffffffffffff16815260200190815260200160002060006101000a81548160ff0219169083151502179055505b5050565b600073ffffffffffffffffffffffffffffffffffffffff168173ffffffffffffffffffffffffffffffffffffffff16141515156143b257600080fd5b6143bc8282613e36565b1561441c5760008260000160008373ffffffffffffffffffffffffffffffffffffffff1673ffffffffffffffffffffffffffffffffffffffff16815260200190815260200160002060006101000a81548160ff0219169083151502179055505b5050565b610200604051908101604052806000815260200160008152602001600073ffffffffffffffffffffffffffffffffffffffff168152602001600073ffffffffffffffffffffffffffffffffffffffff16815260200160608152602001606081526020016060815260200160608152602001600081526020016060815260200160008152602001600060078111156144b357fe5b8152602001600073ffffffffffffffffffffffffffffffffffffffff168152602001600073ffffffffffffffffffffffffffffffffffffffff168152602001600073ffffffffffffffffffffffffffffffffffffffff168152602001606081525090565b828054600181600116156101000203166002900490600052602060002090601f016020900481019282601f1061455857805160ff1916838001178555614586565b82800160010185558215614586579182015b8281111561458557825182559160200191906001019061456a565b5b5090506145939190614597565b5090565b6145b991905b808211156145b557600081600090555060010161459d565b5090565b905600a165627a7a72305820f7c0e5e6b823e1f6897020e6036fb41eae5725b5504de8babf451bd373fbbe630029",
  "source": "pragma solidity ^0.4.24;\n\nimport \"../coffeeaccesscontrol/FarmerRole.sol\";\nimport \"../coffeeaccesscontrol/RetailerRole.sol\";\nimport \"../coffeeaccesscontrol/DistributorRole.sol\";\nimport \"../coffeeaccesscontrol/ConsumerRole.sol\";\nimport \"../coffeecore/Ownable.sol\";\n\n// import \"../coffeecore/Ownable.sol\";\n// Define a contract 'Supplychain'\ncontract SupplyChain is FarmerRole, RetailerRole, DistributorRole, ConsumerRole, Ownable\n\n{\n\n    // Define a variable called 'upc' for Universal Product Code (UPC)\n    uint  upc;\n\n    // Define a variable called 'sku' for Stock Keeping Unit (SKU)\n    uint  sku;\n\n    // Define enum 'State' with the following values:\n    enum State\n    {\n        Harvested, // 0\n        Processed, // 1\n        Packed, // 2\n        ForSale, // 3\n        Sold, // 4\n        Shipped, // 5\n        Received, // 6\n        Purchased   // 7\n    }\n\n\n\n    State constant defaultState = State.Harvested;\n\n    // Define a struct 'Item' with the following fields:\n    struct Item {\n        uint sku;  // Stock Keeping Unit (SKU)\n        uint upc; // Universal Product Code (UPC), generated by the Farmer, goes on the package, can be verified by the Consumer\n        address ownerID;  // Metamask-Ethereum address of the current owner as the product moves through 8 stages\n        address originFarmerID; // Metamask-Ethereum address of the Farmer\n        string originFarmName; // Farmer Name\n        string originFarmInformation;  // Farmer Information\n        string originFarmLatitude; // Farm Latitude\n        string originFarmLongitude;  // Farm Longitude\n        uint productID;  // Product ID potentially a combination of upc + sku\n        string productNotes; // Product Notes\n        uint productPrice; // Product Price\n        State itemState;  // Product State as represented in the enum above\n        address distributorID;  // Metamask-Ethereum address of the Distributor\n        address retailerID; // Metamask-Ethereum address of the Retailer\n        address consumerID; // Metamask-Ethereum address of the Consumer\n        string productImageHash;  // Farmer Information\n    }\n\n    // Define a public mapping 'items' that maps the UPC to an Item.\n    mapping(uint => Item) items;\n\n    // Define a public mapping 'itemsHistory' that maps the UPC to an array of TxHash,\n    // that track its journey through the supply chain -- to be sent from DApp.\n    mapping(uint => string[]) itemsHistory;\n\n\n    // Define 8 events with the same 8 state values and accept 'upc' as input argument\n    event Harvested(uint upc);\n    event NewProductID(uint productID);\n    event Processed(uint upc);\n    event Packed(uint upc);\n    event ForSale(uint upc);\n    event Sold(uint upc);\n    event Shipped(uint upc);\n    event Received(uint upc);\n    event Purchased(uint upc);\n\n\n    // Define a modifer that verifies the Caller\n    modifier verifyCaller (address _address) {\n        require(msg.sender == _address);\n        _;\n    }\n\n    // Define a modifier that checks if the paid amount is sufficient to cover the price\n    modifier paidEnough(uint _price) {\n        require(msg.value >= _price, 'Paid not enough for the Item!');\n        _;\n    }\n\n    // Define a modifier that checks the price and refunds the remaining balance\n    modifier checkValue(uint _upc) {\n        _;\n        uint _price = items[_upc].productPrice;\n        uint amountToReturn = msg.value - _price;\n        msg.sender.transfer(amountToReturn);\n    }\n\n    // Define a modifier that checks if an item.state of a upc is Harvested\n    modifier harvested(uint _upc) {\n        require(items[_upc].itemState == State.Harvested, 'Harvested status not met!');\n        _;\n    }\n\n    // Define a modifier that checks if an item.state of a upc is Processed\n    modifier processed(uint _upc) {\n        require(items[_upc].itemState == State.Processed, 'Processed status not met!');\n        _;\n    }\n\n    // Define a modifier that checks if an item.state of a upc is Packed\n    modifier packed(uint _upc) {\n        require(items[_upc].itemState == State.Packed, 'Packed status not met!');\n        _;\n    }\n\n    // Define a modifier that checks if an item.state of a upc is ForSale\n    modifier forSale(uint _upc) {\n        require(items[_upc].itemState == State.ForSale, 'ForSale status not met!');\n        _;\n    }\n\n    // Define a modifier that checks if an item.state of a upc is Sold\n    modifier sold(uint _upc) {\n        require(items[_upc].itemState == State.Sold, 'Sold status not met!');\n        _;\n    }\n\n    // Define a modifier that checks if an item.state of a upc is Shipped\n    modifier shipped(uint _upc) {\n        require(items[_upc].itemState == State.Shipped, 'Shipped status not met!');\n        _;\n    }\n\n    // Define a modifier that checks if an item.state of a upc is Received\n    modifier received(uint _upc) {\n        require(items[_upc].itemState == State.Received, 'Received status not met!');\n        _;\n    }\n\n    // Define a modifier that checks if an item.state of a upc is Purchased\n    modifier purchased(uint _upc) {\n        require(items[_upc].itemState == State.Purchased, 'Purchased status not met!');\n        _;\n    }\n\n    // In the constructor set 'owner' to the address that instantiated the contract\n    // and set 'sku' to 1\n    // and set 'upc' to 1\n    constructor() public Ownable() {\n        sku = 1;\n        upc = 1;\n    }\n\n    // Define a function 'kill' if required\n\n\n    function getState(uint _upc) public view returns (string memory)\n    {\n        return _toStateString(items[_upc].itemState);\n    }\n\n    function _toStateString(State _state) public pure returns (string memory) {\n        // Loop through possible options\n        if (_state == State.Harvested) return \"Harvested\";\n        if (_state == State.Processed) return \"Processed\";\n        if (_state == State.Packed) return \"Packed\";\n        if (_state == State.ForSale) return \"ForSale\";\n        if (_state == State.Sold) return \"Sold\";\n        if (_state == State.Shipped) return \"Shipped\";\n        if (_state == State.Received) return \"Received\";\n        if (_state == State.Purchased) return \"Purchased\";\n        return '';\n    }\n\n\n    // Define a function 'harvestItem' that allows a farmer to mark an item 'Harvested'\n    function harvestItem(uint _upc, address _originFarmerID, string _originFarmName, string _originFarmInformation,\n        string _originFarmLatitude, string _originFarmLongitude, string _productNotes, string _productImageHash) public\n    {\n        uint _productID = _upc + sku;\n        items[_upc] = Item(sku,\n            _upc,\n            _originFarmerID,\n            _originFarmerID, // Metamask-Ethereum address of the Farmer\n            _originFarmName, // Farmer Name\n            _originFarmInformation, // Farmer Information\n            _originFarmLatitude, // Farm Latitude\n            _originFarmLongitude, // Farm Longitude\n            _productID, // Product ID potentially a combination of upc + sku\n            _productNotes, // Product Notes\n            uint(0), // Product Price\n            State.Harvested, // Product State as represented in the enum above\n            address(0), // Metamask-Ethereum address of the Distributor\n            address(0), // Metamask-Ethereum address of the Retailer\n            address(0), // Metamask-Ethereum address of the Consumer);\n            _productImageHash\n        );\n        if (!isFarmer(_originFarmerID)) {\n            addFarmer(_originFarmerID);\n        }\n        sku = sku + 1;\n        emit Harvested(_upc);\n        emit NewProductID(_productID);\n    }\n\n\n    function processItem(uint _upc) public\n    harvested(_upc)\n    onlyFarmer\n    {\n        Item storage item = items[_upc];\n        require(item.originFarmerID == msg.sender, 'Origin Farmer ID does not match sender address!');\n        item.itemState = State.Processed;\n        require(item.itemState == State.Processed, 'Could not change item state!');\n        emit Processed(_upc);\n    }\n\n    function packItem(uint _upc) public\n    processed(_upc)\n    onlyFarmer\n    {\n        Item storage item = items[_upc];\n        require(item.originFarmerID == msg.sender, 'Origin Farmer ID does not match sender address!');\n        item.itemState = State.Packed;\n        require(item.itemState == State.Packed, 'Could not change item state!');\n        emit Packed(upc);\n    }\n\n    function sellItem(uint _upc, uint _price) public\n    packed(_upc)\n    onlyFarmer\n    {\n        Item storage item = items[_upc];\n        require(item.originFarmerID == msg.sender);\n        item.productPrice = _price;\n        item.itemState = State.ForSale;\n        require(item.itemState == State.ForSale, 'Could not change item state!');\n        emit ForSale(upc);\n    }\n\n    function buyItem(uint _upc) public payable\n    forSale(_upc)\n    onlyDistributor\n    paidEnough(_upc)\n    checkValue(_upc)\n    {\n        Item storage item = items[_upc];\n        item.ownerID = msg.sender;\n        item.distributorID = msg.sender;\n        item.itemState = State.Sold;\n        item.originFarmerID.transfer(item.productPrice);\n        emit Sold(upc);\n    }\n\n    function shipItem(uint _upc) public\n    sold(_upc)\n    onlyDistributor\n    {\n        Item storage item = items[_upc];\n        item.distributorID = msg.sender;\n        item.itemState = State.Shipped;\n        emit Shipped(_upc);\n    }\n\n    function receiveItem(uint _upc) public\n    shipped(_upc)\n    onlyRetailer\n    {\n        Item storage item = items[_upc];\n        item.itemState = State.Received;\n        item.ownerID = msg.sender;\n        item.retailerID = msg.sender;\n        emit Received(_upc);\n\n    }\n\n    function purchaseItem(uint _upc) public\n    received(_upc)\n    onlyConsumer\n    {\n        Item storage item = items[_upc];\n        item.itemState = State.Purchased;\n        item.ownerID = msg.sender;\n        item.consumerID = msg.sender;\n        emit Purchased(_upc);\n    }\n\n    // Define a function 'fetchItemBufferOne' that fetches the data\n    function fetchItemBufferOne(uint _upc) public view returns\n    (\n        uint itemSKU,\n        uint itemUPC,\n        address ownerID,\n        address originFarmerID,\n        string originFarmName,\n        string originFarmInformation,\n        string originFarmLatitude,\n        string originFarmLongitude,\n        string productImageHash\n    )\n    {\n        // Assign values to the 8 parameters\n        Item memory item = items[_upc];\n\n        return\n        (item.sku,\n        item.upc,\n        item.ownerID,\n        item.originFarmerID,\n        item.originFarmName,\n        item.originFarmInformation,\n        item.originFarmLatitude,\n        item.originFarmLongitude,\n        item.productImageHash);\n    }\n\n    // Define a function 'fetchItemBufferTwo' that fetches the data\n    function fetchItemBufferTwo(uint _upc) public view returns\n    (\n        uint itemSKU,\n        uint itemUPC,\n        uint productID,\n        string productNotes,\n        uint productPrice,\n        uint itemState,\n        address distributorID,\n        address retailerID,\n        address consumerID\n    )\n    {\n        // Assign values to the 9 parameters\n        Item memory item = items[_upc];\n        itemSKU = item.sku;\n        itemUPC = item.upc;\n        productID = item.productID;\n        productNotes = item.productNotes;\n        productPrice = item.productPrice;\n        itemState = uint(item.itemState);\n        distributorID = item.distributorID;\n        retailerID = item.retailerID;\n        consumerID = item.consumerID;\n        return;\n    }\n\n    // Test if the provided upc already is used\n    function isUpcExists(uint _upc) public view returns (bool) {\n        Item memory item = items[_upc];\n        if (item.upc != 0) {\n            return true;\n        }\n        return false;\n    }\n\n\n}\n",
  "sourcePath": "/Users/tonibuenter/_proj/misc/blockchain/dev/u3-farmer-supplychain/contracts/coffeebase/SupplyChain.sol",
  "compiler": {
    "name": "solc",
    "version": "0.4.24+commit.e67f0147.Emscripten.clang"
  },
  "schemaVersion": "3.4.9",
  "updatedAt": "2023-03-06T14:42:29.457Z",
  "networkType": "ethereum",
  "devdoc": {
    "methods": {}
  },
  "userdoc": {
    "methods": {
      "isOwner()": {
        "notice": "Check if the calling address is the owner of the contract"
      },
      "owner()": {
        "notice": "Look up the address of the owner"
      },
      "renounceOwnership()": {
        "notice": "Define a function to renounce ownerhip"
      },
      "transferOwnership(address)": {
        "notice": "Define a public function to transfer ownership"
      }
    }
  }
}